{
  "contracts/MyQuiz.sol": {
    "MyQuiz": {
      "abi": [
        {
          "inputs": [
            {
              "internalType": "string[]",
              "name": "initialQuestions",
              "type": "string[]"
            },
            {
              "internalType": "bool[]",
              "name": "initialAnswers",
              "type": "bool[]"
            }
          ],
          "stateMutability": "nonpayable",
          "type": "constructor"
        },
        {
          "anonymous": false,
          "inputs": [
            {
              "indexed": true,
              "internalType": "address",
              "name": "user",
              "type": "address"
            },
            {
              "indexed": false,
              "internalType": "string",
              "name": "question",
              "type": "string"
            },
            {
              "indexed": false,
              "internalType": "bool",
              "name": "userAnswer",
              "type": "bool"
            }
          ],
          "name": "AnswerStored",
          "type": "event"
        },
        {
          "anonymous": false,
          "inputs": [
            {
              "indexed": true,
              "internalType": "address",
              "name": "user",
              "type": "address"
            },
            {
              "indexed": false,
              "internalType": "string",
              "name": "question",
              "type": "string"
            },
            {
              "indexed": false,
              "internalType": "bool",
              "name": "answerIsYes",
              "type": "bool"
            }
          ],
          "name": "QuestionAsked",
          "type": "event"
        },
        {
          "inputs": [],
          "name": "_owner",
          "outputs": [
            {
              "internalType": "address",
              "name": "",
              "type": "address"
            }
          ],
          "stateMutability": "view",
          "type": "function"
        },
        {
          "inputs": [],
          "name": "_validator",
          "outputs": [
            {
              "internalType": "address",
              "name": "",
              "type": "address"
            }
          ],
          "stateMutability": "view",
          "type": "function"
        },
        {
          "inputs": [
            {
              "internalType": "uint256",
              "name": "index",
              "type": "uint256"
            },
            {
              "internalType": "bytes",
              "name": "signature",
              "type": "bytes"
            },
            {
              "internalType": "uint256",
              "name": "ethAmount",
              "type": "uint256"
            }
          ],
          "name": "addSignature",
          "outputs": [],
          "stateMutability": "nonpayable",
          "type": "function"
        },
        {
          "inputs": [
            {
              "internalType": "string",
              "name": "question",
              "type": "string"
            },
            {
              "internalType": "bool",
              "name": "userAnswer",
              "type": "bool"
            }
          ],
          "name": "answerQuestion",
          "outputs": [],
          "stateMutability": "nonpayable",
          "type": "function"
        },
        {
          "inputs": [
            {
              "internalType": "string",
              "name": "",
              "type": "string"
            }
          ],
          "name": "answers",
          "outputs": [
            {
              "internalType": "bool",
              "name": "",
              "type": "bool"
            }
          ],
          "stateMutability": "view",
          "type": "function"
        },
        {
          "inputs": [],
          "name": "askQuestion",
          "outputs": [],
          "stateMutability": "payable",
          "type": "function"
        },
        {
          "inputs": [
            {
              "internalType": "string",
              "name": "question",
              "type": "string"
            }
          ],
          "name": "getAnswer",
          "outputs": [
            {
              "internalType": "bool",
              "name": "",
              "type": "bool"
            }
          ],
          "stateMutability": "view",
          "type": "function"
        },
        {
          "inputs": [],
          "name": "getBlockNumber",
          "outputs": [
            {
              "internalType": "uint256",
              "name": "",
              "type": "uint256"
            }
          ],
          "stateMutability": "view",
          "type": "function"
        },
        {
          "inputs": [],
          "name": "getOwner",
          "outputs": [
            {
              "internalType": "address",
              "name": "",
              "type": "address"
            }
          ],
          "stateMutability": "view",
          "type": "function"
        },
        {
          "inputs": [],
          "name": "getQuestions",
          "outputs": [
            {
              "internalType": "string[]",
              "name": "",
              "type": "string[]"
            }
          ],
          "stateMutability": "view",
          "type": "function"
        },
        {
          "inputs": [
            {
              "internalType": "uint256",
              "name": "index",
              "type": "uint256"
            }
          ],
          "name": "getSignature",
          "outputs": [
            {
              "internalType": "bytes",
              "name": "",
              "type": "bytes"
            }
          ],
          "stateMutability": "view",
          "type": "function"
        },
        {
          "inputs": [
            {
              "internalType": "uint256",
              "name": "index",
              "type": "uint256"
            }
          ],
          "name": "getSignatureEthAmount",
          "outputs": [
            {
              "internalType": "uint256",
              "name": "",
              "type": "uint256"
            }
          ],
          "stateMutability": "view",
          "type": "function"
        },
        {
          "inputs": [
            {
              "internalType": "address",
              "name": "_address",
              "type": "address"
            }
          ],
          "name": "isValidator",
          "outputs": [
            {
              "internalType": "bool",
              "name": "",
              "type": "bool"
            }
          ],
          "stateMutability": "view",
          "type": "function"
        },
        {
          "inputs": [],
          "name": "owner",
          "outputs": [
            {
              "internalType": "address",
              "name": "",
              "type": "address"
            }
          ],
          "stateMutability": "view",
          "type": "function"
        },
        {
          "inputs": [
            {
              "internalType": "uint256",
              "name": "",
              "type": "uint256"
            }
          ],
          "name": "questions",
          "outputs": [
            {
              "internalType": "string",
              "name": "",
              "type": "string"
            }
          ],
          "stateMutability": "view",
          "type": "function"
        },
        {
          "inputs": [
            {
              "internalType": "uint256",
              "name": "blockNumber",
              "type": "uint256"
            }
          ],
          "name": "setBlockNumber",
          "outputs": [],
          "stateMutability": "nonpayable",
          "type": "function"
        },
        {
          "inputs": [
            {
              "internalType": "uint256",
              "name": "",
              "type": "uint256"
            }
          ],
          "name": "signatures",
          "outputs": [
            {
              "internalType": "bytes",
              "name": "signature",
              "type": "bytes"
            },
            {
              "internalType": "uint256",
              "name": "ethAmount",
              "type": "uint256"
            }
          ],
          "stateMutability": "view",
          "type": "function"
        },
        {
          "inputs": [
            {
              "internalType": "address",
              "name": "",
              "type": "address"
            },
            {
              "internalType": "string",
              "name": "",
              "type": "string"
            }
          ],
          "name": "userAnswers",
          "outputs": [
            {
              "internalType": "bool",
              "name": "",
              "type": "bool"
            }
          ],
          "stateMutability": "view",
          "type": "function"
        }
      ],
      "evm": {
        "bytecode": {
          "linkReferences": {},
          "object": "60806040523480156200001157600080fd5b506040516200308638038062003086833981810160405281019062000037919062000838565b7357bce7314275bc435b2dab9191f5777bb2c4f7a9336000806101000a81548173ffffffffffffffffffffffffffffffffffffffff021916908373ffffffffffffffffffffffffffffffffffffffff16021790555080600160006101000a81548173ffffffffffffffffffffffffffffffffffffffff021916908373ffffffffffffffffffffffffffffffffffffffff160217905550600073ffffffffffffffffffffffffffffffffffffffff16600160009054906101000a900473ffffffffffffffffffffffffffffffffffffffff1673ffffffffffffffffffffffffffffffffffffffff160362000161576040517f08c379a0000000000000000000000000000000000000000000000000000000008152600401620001589062000944565b60405180910390fd5b600160009054906101000a900473ffffffffffffffffffffffffffffffffffffffff1673ffffffffffffffffffffffffffffffffffffffff1663c9b9da956040518163ffffffff1660e01b8152600401600060405180830381600087803b158015620001cc57600080fd5b505af1158015620001e1573d6000803e3d6000fd5b50505050600160009054906101000a900473ffffffffffffffffffffffffffffffffffffffff1673ffffffffffffffffffffffffffffffffffffffff16633c21bf256040518163ffffffff1660e01b8152600401600060405180830381600087803b1580156200025057600080fd5b505af115801562000265573d6000803e3d6000fd5b50505050508051825114620002b1576040517f08c379a0000000000000000000000000000000000000000000000000000000008152600401620002a890620009b6565b60405180910390fd5b33600460006101000a81548173ffffffffffffffffffffffffffffffffffffffff021916908373ffffffffffffffffffffffffffffffffffffffff16021790555081600590805190602001906200030a929190620003a9565b5060005b8251811015620003a0578181815181106200032e576200032d620009d8565b5b602002602001015160068483815181106200034e576200034d620009d8565b5b602002602001015160405162000365919062000a54565b908152602001604051809103902060006101000a81548160ff0219169083151502179055508080620003979062000aa6565b9150506200030e565b50505062000e10565b828054828255906000526020600020908101928215620003f6579160200282015b82811115620003f5578251829081620003e4919062000d29565b5091602001919060010190620003ca565b5b50905062000405919062000409565b5090565b5b808211156200042d576000818162000423919062000431565b506001016200040a565b5090565b5080546200043f9062000b22565b6000825580601f1062000453575062000474565b601f01602090049060005260206000209081019062000473919062000477565b5b50565b5b808211156200049257600081600090555060010162000478565b5090565b6000604051905090565b600080fd5b600080fd5b600080fd5b6000601f19601f8301169050919050565b7f4e487b7100000000000000000000000000000000000000000000000000000000600052604160045260246000fd5b620004fa82620004af565b810181811067ffffffffffffffff821117156200051c576200051b620004c0565b5b80604052505050565b60006200053162000496565b90506200053f8282620004ef565b919050565b600067ffffffffffffffff821115620005625762000561620004c0565b5b602082029050602081019050919050565b600080fd5b600080fd5b600067ffffffffffffffff8211156200059b576200059a620004c0565b5b620005a682620004af565b9050602081019050919050565b60005b83811015620005d3578082015181840152602081019050620005b6565b60008484015250505050565b6000620005f6620005f0846200057d565b62000525565b90508281526020810184848401111562000615576200061462000578565b5b62000622848285620005b3565b509392505050565b600082601f830112620006425762000641620004aa565b5b815162000654848260208601620005df565b91505092915050565b6000620006746200066e8462000544565b62000525565b905080838252602082019050602084028301858111156200069a576200069962000573565b5b835b81811015620006e857805167ffffffffffffffff811115620006c357620006c2620004aa565b5b808601620006d289826200062a565b855260208501945050506020810190506200069c565b5050509392505050565b600082601f8301126200070a5762000709620004aa565b5b81516200071c8482602086016200065d565b91505092915050565b600067ffffffffffffffff821115620007435762000742620004c0565b5b602082029050602081019050919050565b60008115159050919050565b6200076b8162000754565b81146200077757600080fd5b50565b6000815190506200078b8162000760565b92915050565b6000620007a8620007a28462000725565b62000525565b90508083825260208201905060208402830185811115620007ce57620007cd62000573565b5b835b81811015620007fb5780620007e688826200077a565b845260208401935050602081019050620007d0565b5050509392505050565b600082601f8301126200081d576200081c620004aa565b5b81516200082f84826020860162000791565b91505092915050565b60008060408385031215620008525762000851620004a0565b5b600083015167ffffffffffffffff811115620008735762000872620004a5565b5b6200088185828601620006f2565b925050602083015167ffffffffffffffff811115620008a557620008a4620004a5565b5b620008b38582860162000805565b9150509250929050565b600082825260208201905092915050565b7f41646472657373206f662056616c696461746f7220436f6e747261637420697360008201527f206e6f7420736574000000000000000000000000000000000000000000000000602082015250565b60006200092c602883620008bd565b91506200093982620008ce565b604082019050919050565b600060208201905081810360008301526200095f816200091d565b9050919050565b7f4d69736d617463686564206172726179206c656e677468730000000000000000600082015250565b60006200099e601883620008bd565b9150620009ab8262000966565b602082019050919050565b60006020820190508181036000830152620009d1816200098f565b9050919050565b7f4e487b7100000000000000000000000000000000000000000000000000000000600052603260045260246000fd5b600081519050919050565b600081905092915050565b600062000a2a8262000a07565b62000a36818562000a12565b935062000a48818560208601620005b3565b80840191505092915050565b600062000a62828462000a1d565b915081905092915050565b7f4e487b7100000000000000000000000000000000000000000000000000000000600052601160045260246000fd5b6000819050919050565b600062000ab38262000a9c565b91507fffffffffffffffffffffffffffffffffffffffffffffffffffffffffffffffff820362000ae85762000ae762000a6d565b5b600182019050919050565b7f4e487b7100000000000000000000000000000000000000000000000000000000600052602260045260246000fd5b6000600282049050600182168062000b3b57607f821691505b60208210810362000b515762000b5062000af3565b5b50919050565b60008190508160005260206000209050919050565b60006020601f8301049050919050565b600082821b905092915050565b60006008830262000bbb7fffffffffffffffffffffffffffffffffffffffffffffffffffffffffffffffff8262000b7c565b62000bc7868362000b7c565b95508019841693508086168417925050509392505050565b6000819050919050565b600062000c0a62000c0462000bfe8462000a9c565b62000bdf565b62000a9c565b9050919050565b6000819050919050565b62000c268362000be9565b62000c3e62000c358262000c11565b84845462000b89565b825550505050565b600090565b62000c5562000c46565b62000c6281848462000c1b565b505050565b5b8181101562000c8a5762000c7e60008262000c4b565b60018101905062000c68565b5050565b601f82111562000cd95762000ca38162000b57565b62000cae8462000b6c565b8101602085101562000cbe578190505b62000cd662000ccd8562000b6c565b83018262000c67565b50505b505050565b600082821c905092915050565b600062000cfe6000198460080262000cde565b1980831691505092915050565b600062000d19838362000ceb565b9150826002028217905092915050565b62000d348262000a07565b67ffffffffffffffff81111562000d505762000d4f620004c0565b5b62000d5c825462000b22565b62000d6982828562000c8e565b600060209050601f83116001811462000da1576000841562000d8c578287015190505b62000d98858262000d0b565b86555062000e08565b601f19841662000db18662000b57565b60005b8281101562000ddb5784890151825560018201915060208501945060208101905062000db4565b8683101562000dfb578489015162000df7601f89168262000ceb565b8355505b6001600288020188555050505b505050505050565b6122668062000e206000396000f3fe6080604052600436106101095760003560e01c806397221ab711610095578063c5bacb9611610064578063c5bacb9614610392578063d1827e85146103cf578063d2f7b19a146103d9578063e785fe5214610416578063facd743b1461044157610109565b806397221ab7146102ea578063a8c3c85014610315578063b2bdfa7b1461033e578063ba44f1f91461036957610109565b80635e13c0da116100dc5780635e13c0da146101f057806386f763a11461022d578063893d20e8146102565780638be10194146102815780638da5cb5b146102bf57610109565b806302a569e61461010e5780632be49cf01461014b57806331b1b9781461018857806342cbb15c146101c5575b600080fd5b34801561011a57600080fd5b506101356004803603810190610130919061120a565b61047e565b60405161014291906112c7565b60405180910390f35b34801561015757600080fd5b50610172600480360381019061016d919061141e565b610657565b60405161017f9190611482565b60405180910390f35b34801561019457600080fd5b506101af60048036038101906101aa919061120a565b6106c9565b6040516101bc91906114f2565b60405180910390f35b3480156101d157600080fd5b506101da610775565b6040516101e79190611523565b60405180910390f35b3480156101fc57600080fd5b506102176004803603810190610212919061141e565b610796565b6040516102249190611482565b60405180910390f35b34801561023957600080fd5b50610254600480360381019061024f919061156a565b6107cc565b005b34801561026257600080fd5b5061026b610893565b6040516102789190611607565b60405180910390f35b34801561028d57600080fd5b506102a860048036038101906102a3919061120a565b6108bc565b6040516102b6929190611622565b60405180910390f35b3480156102cb57600080fd5b506102d4610968565b6040516102e19190611607565b60405180910390f35b3480156102f657600080fd5b506102ff61098e565b60405161030c919061175e565b60405180910390f35b34801561032157600080fd5b5061033c6004803603810190610337919061120a565b610a67565b005b34801561034a57600080fd5b50610353610b4c565b6040516103609190611607565b60405180910390f35b34801561037557600080fd5b50610390600480360381019061038b9190611821565b610b70565b005b34801561039e57600080fd5b506103b960048036038101906103b4919061120a565b610d41565b6040516103c69190611523565b60405180910390f35b6103d7610e92565b005b3480156103e557600080fd5b5061040060048036038101906103fb91906118bc565b61100f565b60405161040d9190611482565b60405180910390f35b34801561042257600080fd5b5061042b611054565b6040516104389190611607565b60405180910390f35b34801561044d57600080fd5b5061046860048036038101906104639190611918565b61107a565b6040516104759190611482565b60405180910390f35b6060600160009054906101000a900473ffffffffffffffffffffffffffffffffffffffff1673ffffffffffffffffffffffffffffffffffffffff1663facd743b336040518263ffffffff1660e01b81526004016104db9190611607565b602060405180830381865afa1580156104f8573d6000803e3d6000fd5b505050506040513d601f19601f8201168201806040525081019061051c919061195a565b80610572575060008054906101000a900473ffffffffffffffffffffffffffffffffffffffff1673ffffffffffffffffffffffffffffffffffffffff163373ffffffffffffffffffffffffffffffffffffffff16145b6105b1576040517f08c379a00000000000000000000000000000000000000000000000000000000081526004016105a890611a1f565b60405180910390fd5b6003600083815260200190815260200160002060000180546105d290611a6e565b80601f01602080910402602001604051908101604052809291908181526020018280546105fe90611a6e565b801561064b5780601f106106205761010080835404028352916020019161064b565b820191906000526020600020905b81548152906001019060200180831161062e57829003601f168201915b50505050509050919050565b6000600760003373ffffffffffffffffffffffffffffffffffffffff1673ffffffffffffffffffffffffffffffffffffffff168152602001908152602001600020826040516106a69190611adb565b908152602001604051809103902060009054906101000a900460ff169050919050565b600581815481106106d957600080fd5b9060005260206000200160009150905080546106f490611a6e565b80601f016020809104026020016040519081016040528092919081815260200182805461072090611a6e565b801561076d5780601f106107425761010080835404028352916020019161076d565b820191906000526020600020905b81548152906001019060200180831161075057829003601f168201915b505050505081565b60006107803361107a565b1561078f576002549050610793565b4390505b90565b6006818051602081018201805184825260208301602085012081835280955050505050506000915054906101000a900460ff1681565b80600760003373ffffffffffffffffffffffffffffffffffffffff1673ffffffffffffffffffffffffffffffffffffffff1681526020019081526020016000208360405161081a9190611adb565b908152602001604051809103902060006101000a81548160ff0219169083151502179055503373ffffffffffffffffffffffffffffffffffffffff167f2f09ea51064be5679f31a4ae5e50022adf00c54a42862fe2c90babae1508544d8383604051610887929190611af2565b60405180910390a25050565b60008060009054906101000a900473ffffffffffffffffffffffffffffffffffffffff16905090565b60036020528060005260406000206000915090508060000180546108df90611a6e565b80601f016020809104026020016040519081016040528092919081815260200182805461090b90611a6e565b80156109585780601f1061092d57610100808354040283529160200191610958565b820191906000526020600020905b81548152906001019060200180831161093b57829003601f168201915b5050505050908060010154905082565b600460009054906101000a900473ffffffffffffffffffffffffffffffffffffffff1681565b60606005805480602002602001604051908101604052809291908181526020016000905b82821015610a5e5783829060005260206000200180546109d190611a6e565b80601f01602080910402602001604051908101604052809291908181526020018280546109fd90611a6e565b8015610a4a5780601f10610a1f57610100808354040283529160200191610a4a565b820191906000526020600020905b815481529060010190602001808311610a2d57829003601f168201915b5050505050815260200190600101906109b2565b50505050905090565b600160009054906101000a900473ffffffffffffffffffffffffffffffffffffffff1673ffffffffffffffffffffffffffffffffffffffff1663facd743b336040518263ffffffff1660e01b8152600401610ac29190611607565b602060405180830381865afa158015610adf573d6000803e3d6000fd5b505050506040513d601f19601f82011682018060405250810190610b03919061195a565b610b42576040517f08c379a0000000000000000000000000000000000000000000000000000000008152600401610b3990611bba565b60405180910390fd5b8060028190555050565b60008054906101000a900473ffffffffffffffffffffffffffffffffffffffff1681565b600160009054906101000a900473ffffffffffffffffffffffffffffffffffffffff1673ffffffffffffffffffffffffffffffffffffffff1663facd743b336040518263ffffffff1660e01b8152600401610bcb9190611607565b602060405180830381865afa158015610be8573d6000803e3d6000fd5b505050506040513d601f19601f82011682018060405250810190610c0c919061195a565b80610c62575060008054906101000a900473ffffffffffffffffffffffffffffffffffffffff1673ffffffffffffffffffffffffffffffffffffffff163373ffffffffffffffffffffffffffffffffffffffff16145b610ca1576040517f08c379a0000000000000000000000000000000000000000000000000000000008152600401610c9890611c72565b60405180910390fd5b60008310158015610cb25750600583105b610cf1576040517f08c379a0000000000000000000000000000000000000000000000000000000008152600401610ce890611d04565b60405180910390fd5b604051806040016040528083815260200182815250600360008581526020019081526020016000206000820151816000019081610d2e9190611ed0565b5060208201518160010155905050505050565b6000600160009054906101000a900473ffffffffffffffffffffffffffffffffffffffff1673ffffffffffffffffffffffffffffffffffffffff1663facd743b336040518263ffffffff1660e01b8152600401610d9e9190611607565b602060405180830381865afa158015610dbb573d6000803e3d6000fd5b505050506040513d601f19601f82011682018060405250810190610ddf919061195a565b80610e35575060008054906101000a900473ffffffffffffffffffffffffffffffffffffffff1673ffffffffffffffffffffffffffffffffffffffff163373ffffffffffffffffffffffffffffffffffffffff16145b610e74576040517f08c379a0000000000000000000000000000000000000000000000000000000008152600401610e6b9061203a565b60405180910390fd5b60036000838152602001908152602001600020600101549050919050565b600060058054905042600143610ea89190612089565b40604051602001610eba929190612109565b6040516020818303038152906040528051906020012060001c610edd9190612164565b9050600060058281548110610ef557610ef4612195565b5b906000526020600020018054610f0a90611a6e565b80601f0160208091040260200160405190810160405280929190818152602001828054610f3690611a6e565b8015610f835780601f10610f5857610100808354040283529160200191610f83565b820191906000526020600020905b815481529060010190602001808311610f6657829003601f168201915b505050505090506000600682604051610f9c9190611adb565b908152602001604051809103902060009054906101000a900460ff1690503373ffffffffffffffffffffffffffffffffffffffff167fb953ebb896f792106689250783cc01f61ea32edff55593b494ab972cb3eeacca8383604051611002929190611af2565b60405180910390a2505050565b6007602052816000526040600020818051602081018201805184825260208301602085012081835280955050505050506000915091509054906101000a900460ff1681565b600160009054906101000a900473ffffffffffffffffffffffffffffffffffffffff1681565b60008073ffffffffffffffffffffffffffffffffffffffff16600160009054906101000a900473ffffffffffffffffffffffffffffffffffffffff1673ffffffffffffffffffffffffffffffffffffffff160361110c576040517f08c379a000000000000000000000000000000000000000000000000000000000815260040161110390612210565b60405180910390fd5b600160009054906101000a900473ffffffffffffffffffffffffffffffffffffffff1673ffffffffffffffffffffffffffffffffffffffff1663facd743b836040518263ffffffff1660e01b81526004016111679190611607565b602060405180830381865afa158015611184573d6000803e3d6000fd5b505050506040513d601f19601f820116820180604052508101906111a8919061195a565b156111b657600190506111bb565b600090505b919050565b6000604051905090565b600080fd5b600080fd5b6000819050919050565b6111e7816111d4565b81146111f257600080fd5b50565b600081359050611204816111de565b92915050565b6000602082840312156112205761121f6111ca565b5b600061122e848285016111f5565b91505092915050565b600081519050919050565b600082825260208201905092915050565b60005b83811015611271578082015181840152602081019050611256565b60008484015250505050565b6000601f19601f8301169050919050565b600061129982611237565b6112a38185611242565b93506112b3818560208601611253565b6112bc8161127d565b840191505092915050565b600060208201905081810360008301526112e1818461128e565b905092915050565b600080fd5b600080fd5b7f4e487b7100000000000000000000000000000000000000000000000000000000600052604160045260246000fd5b61132b8261127d565b810181811067ffffffffffffffff8211171561134a576113496112f3565b5b80604052505050565b600061135d6111c0565b90506113698282611322565b919050565b600067ffffffffffffffff821115611389576113886112f3565b5b6113928261127d565b9050602081019050919050565b82818337600083830152505050565b60006113c16113bc8461136e565b611353565b9050828152602081018484840111156113dd576113dc6112ee565b5b6113e884828561139f565b509392505050565b600082601f830112611405576114046112e9565b5b81356114158482602086016113ae565b91505092915050565b600060208284031215611434576114336111ca565b5b600082013567ffffffffffffffff811115611452576114516111cf565b5b61145e848285016113f0565b91505092915050565b60008115159050919050565b61147c81611467565b82525050565b60006020820190506114976000830184611473565b92915050565b600081519050919050565b600082825260208201905092915050565b60006114c48261149d565b6114ce81856114a8565b93506114de818560208601611253565b6114e78161127d565b840191505092915050565b6000602082019050818103600083015261150c81846114b9565b905092915050565b61151d816111d4565b82525050565b60006020820190506115386000830184611514565b92915050565b61154781611467565b811461155257600080fd5b50565b6000813590506115648161153e565b92915050565b60008060408385031215611581576115806111ca565b5b600083013567ffffffffffffffff81111561159f5761159e6111cf565b5b6115ab858286016113f0565b92505060206115bc85828601611555565b9150509250929050565b600073ffffffffffffffffffffffffffffffffffffffff82169050919050565b60006115f1826115c6565b9050919050565b611601816115e6565b82525050565b600060208201905061161c60008301846115f8565b92915050565b6000604082019050818103600083015261163c818561128e565b905061164b6020830184611514565b9392505050565b600081519050919050565b600082825260208201905092915050565b6000819050602082019050919050565b600082825260208201905092915050565b600061169a8261149d565b6116a4818561167e565b93506116b4818560208601611253565b6116bd8161127d565b840191505092915050565b60006116d4838361168f565b905092915050565b6000602082019050919050565b60006116f482611652565b6116fe818561165d565b9350836020820285016117108561166e565b8060005b8581101561174c578484038952815161172d85826116c8565b9450611738836116dc565b925060208a01995050600181019050611714565b50829750879550505050505092915050565b6000602082019050818103600083015261177881846116e9565b905092915050565b600067ffffffffffffffff82111561179b5761179a6112f3565b5b6117a48261127d565b9050602081019050919050565b60006117c46117bf84611780565b611353565b9050828152602081018484840111156117e0576117df6112ee565b5b6117eb84828561139f565b509392505050565b600082601f830112611808576118076112e9565b5b81356118188482602086016117b1565b91505092915050565b60008060006060848603121561183a576118396111ca565b5b6000611848868287016111f5565b935050602084013567ffffffffffffffff811115611869576118686111cf565b5b611875868287016117f3565b9250506040611886868287016111f5565b9150509250925092565b611899816115e6565b81146118a457600080fd5b50565b6000813590506118b681611890565b92915050565b600080604083850312156118d3576118d26111ca565b5b60006118e1858286016118a7565b925050602083013567ffffffffffffffff811115611902576119016111cf565b5b61190e858286016113f0565b9150509250929050565b60006020828403121561192e5761192d6111ca565b5b600061193c848285016118a7565b91505092915050565b6000815190506119548161153e565b92915050565b6000602082840312156119705761196f6111ca565b5b600061197e84828501611945565b91505092915050565b7f4261736541737369676e6d656e743a206765745369676e61747572653a204f6e60008201527f6c792076616c696461746f72206f72206f776e65722063616e2063616c6c207460208201527f6869732066756e6374696f6e0000000000000000000000000000000000000000604082015250565b6000611a09604c836114a8565b9150611a1482611987565b606082019050919050565b60006020820190508181036000830152611a38816119fc565b9050919050565b7f4e487b7100000000000000000000000000000000000000000000000000000000600052602260045260246000fd5b60006002820490506001821680611a8657607f821691505b602082108103611a9957611a98611a3f565b5b50919050565b600081905092915050565b6000611ab58261149d565b611abf8185611a9f565b9350611acf818560208601611253565b80840191505092915050565b6000611ae78284611aaa565b915081905092915050565b60006040820190508181036000830152611b0c81856114b9565b9050611b1b6020830184611473565b9392505050565b7f4261736541737369676e6d656e743a20736574426c6f636b4e756d6265723a2060008201527f4f6e6c792076616c696461746f722063616e2063616c6c20746869732066756e60208201527f6374696f6e000000000000000000000000000000000000000000000000000000604082015250565b6000611ba46045836114a8565b9150611baf82611b22565b606082019050919050565b60006020820190508181036000830152611bd381611b97565b9050919050565b7f4261736541737369676e6d656e743a206164645369676e61747572653a204f6e60008201527f6c792076616c696461746f72206f72206f776e65722063616e2063616c6c207460208201527f6869732066756e6374696f6e0000000000000000000000000000000000000000604082015250565b6000611c5c604c836114a8565b9150611c6782611bda565b606082019050919050565b60006020820190508181036000830152611c8b81611c4f565b9050919050565b7f496e646578206f7574206f662072616e67652e204f6e6c792035207369676e6160008201527f747572657320616c6c6f7765642028696e646578203020746f20342900000000602082015250565b6000611cee603c836114a8565b9150611cf982611c92565b604082019050919050565b60006020820190508181036000830152611d1d81611ce1565b9050919050565b60008190508160005260206000209050919050565b60006020601f8301049050919050565b600082821b905092915050565b600060088302611d867fffffffffffffffffffffffffffffffffffffffffffffffffffffffffffffffff82611d49565b611d908683611d49565b95508019841693508086168417925050509392505050565b6000819050919050565b6000611dcd611dc8611dc3846111d4565b611da8565b6111d4565b9050919050565b6000819050919050565b611de783611db2565b611dfb611df382611dd4565b848454611d56565b825550505050565b600090565b611e10611e03565b611e1b818484611dde565b505050565b5b81811015611e3f57611e34600082611e08565b600181019050611e21565b5050565b601f821115611e8457611e5581611d24565b611e5e84611d39565b81016020851015611e6d578190505b611e81611e7985611d39565b830182611e20565b50505b505050565b600082821c905092915050565b6000611ea760001984600802611e89565b1980831691505092915050565b6000611ec08383611e96565b9150826002028217905092915050565b611ed982611237565b67ffffffffffffffff811115611ef257611ef16112f3565b5b611efc8254611a6e565b611f07828285611e43565b600060209050601f831160018114611f3a5760008415611f28578287015190505b611f328582611eb4565b865550611f9a565b601f198416611f4886611d24565b60005b82811015611f7057848901518255600182019150602085019450602081019050611f4b565b86831015611f8d5784890151611f89601f891682611e96565b8355505b6001600288020188555050505b505050505050565b7f4261736541737369676e6d656e743a206765745369676e61747572654574684160008201527f6d6f756e743a204f6e6c792076616c696461746f72206f72206f776e6572206360208201527f616e2063616c6c20746869732066756e6374696f6e0000000000000000000000604082015250565b60006120246055836114a8565b915061202f82611fa2565b606082019050919050565b6000602082019050818103600083015261205381612017565b9050919050565b7f4e487b7100000000000000000000000000000000000000000000000000000000600052601160045260246000fd5b6000612094826111d4565b915061209f836111d4565b92508282039050818111156120b7576120b661205a565b5b92915050565b6000819050919050565b6120d86120d3826111d4565b6120bd565b82525050565b6000819050919050565b6000819050919050565b6121036120fe826120de565b6120e8565b82525050565b600061211582856120c7565b60208201915061212582846120f2565b6020820191508190509392505050565b7f4e487b7100000000000000000000000000000000000000000000000000000000600052601260045260246000fd5b600061216f826111d4565b915061217a836111d4565b92508261218a57612189612135565b5b828206905092915050565b7f4e487b7100000000000000000000000000000000000000000000000000000000600052603260045260246000fd5b7f56616c696461746f722061646472657373206973206e6f742073657400000000600082015250565b60006121fa601c836114a8565b9150612205826121c4565b602082019050919050565b60006020820190508181036000830152612229816121ed565b905091905056fea2646970667358221220434a61910826606bc7bfbdfec36bf0989850fb83eff344ee9ade2aa1fbcb877664736f6c63430008110033",
          "opcodes": "PUSH1 0x80 PUSH1 0x40 MSTORE CALLVALUE DUP1 ISZERO PUSH3 0x11 JUMPI PUSH1 0x0 DUP1 REVERT JUMPDEST POP PUSH1 0x40 MLOAD PUSH3 0x3086 CODESIZE SUB DUP1 PUSH3 0x3086 DUP4 CODECOPY DUP2 DUP2 ADD PUSH1 0x40 MSTORE DUP2 ADD SWAP1 PUSH3 0x37 SWAP2 SWAP1 PUSH3 0x838 JUMP JUMPDEST PUSH20 0x57BCE7314275BC435B2DAB9191F5777BB2C4F7A9 CALLER PUSH1 0x0 DUP1 PUSH2 0x100 EXP DUP2 SLOAD DUP2 PUSH20 0xFFFFFFFFFFFFFFFFFFFFFFFFFFFFFFFFFFFFFFFF MUL NOT AND SWAP1 DUP4 PUSH20 0xFFFFFFFFFFFFFFFFFFFFFFFFFFFFFFFFFFFFFFFF AND MUL OR SWAP1 SSTORE POP DUP1 PUSH1 0x1 PUSH1 0x0 PUSH2 0x100 EXP DUP2 SLOAD DUP2 PUSH20 0xFFFFFFFFFFFFFFFFFFFFFFFFFFFFFFFFFFFFFFFF MUL NOT AND SWAP1 DUP4 PUSH20 0xFFFFFFFFFFFFFFFFFFFFFFFFFFFFFFFFFFFFFFFF AND MUL OR SWAP1 SSTORE POP PUSH1 0x0 PUSH20 0xFFFFFFFFFFFFFFFFFFFFFFFFFFFFFFFFFFFFFFFF AND PUSH1 0x1 PUSH1 0x0 SWAP1 SLOAD SWAP1 PUSH2 0x100 EXP SWAP1 DIV PUSH20 0xFFFFFFFFFFFFFFFFFFFFFFFFFFFFFFFFFFFFFFFF AND PUSH20 0xFFFFFFFFFFFFFFFFFFFFFFFFFFFFFFFFFFFFFFFF AND SUB PUSH3 0x161 JUMPI PUSH1 0x40 MLOAD PUSH32 0x8C379A000000000000000000000000000000000000000000000000000000000 DUP2 MSTORE PUSH1 0x4 ADD PUSH3 0x158 SWAP1 PUSH3 0x944 JUMP JUMPDEST PUSH1 0x40 MLOAD DUP1 SWAP2 SUB SWAP1 REVERT JUMPDEST PUSH1 0x1 PUSH1 0x0 SWAP1 SLOAD SWAP1 PUSH2 0x100 EXP SWAP1 DIV PUSH20 0xFFFFFFFFFFFFFFFFFFFFFFFFFFFFFFFFFFFFFFFF AND PUSH20 0xFFFFFFFFFFFFFFFFFFFFFFFFFFFFFFFFFFFFFFFF AND PUSH4 0xC9B9DA95 PUSH1 0x40 MLOAD DUP2 PUSH4 0xFFFFFFFF AND PUSH1 0xE0 SHL DUP2 MSTORE PUSH1 0x4 ADD PUSH1 0x0 PUSH1 0x40 MLOAD DUP1 DUP4 SUB DUP2 PUSH1 0x0 DUP8 DUP1 EXTCODESIZE ISZERO DUP1 ISZERO PUSH3 0x1CC JUMPI PUSH1 0x0 DUP1 REVERT JUMPDEST POP GAS CALL ISZERO DUP1 ISZERO PUSH3 0x1E1 JUMPI RETURNDATASIZE PUSH1 0x0 DUP1 RETURNDATACOPY RETURNDATASIZE PUSH1 0x0 REVERT JUMPDEST POP POP POP POP PUSH1 0x1 PUSH1 0x0 SWAP1 SLOAD SWAP1 PUSH2 0x100 EXP SWAP1 DIV PUSH20 0xFFFFFFFFFFFFFFFFFFFFFFFFFFFFFFFFFFFFFFFF AND PUSH20 0xFFFFFFFFFFFFFFFFFFFFFFFFFFFFFFFFFFFFFFFF AND PUSH4 0x3C21BF25 PUSH1 0x40 MLOAD DUP2 PUSH4 0xFFFFFFFF AND PUSH1 0xE0 SHL DUP2 MSTORE PUSH1 0x4 ADD PUSH1 0x0 PUSH1 0x40 MLOAD DUP1 DUP4 SUB DUP2 PUSH1 0x0 DUP8 DUP1 EXTCODESIZE ISZERO DUP1 ISZERO PUSH3 0x250 JUMPI PUSH1 0x0 DUP1 REVERT JUMPDEST POP GAS CALL ISZERO DUP1 ISZERO PUSH3 0x265 JUMPI RETURNDATASIZE PUSH1 0x0 DUP1 RETURNDATACOPY RETURNDATASIZE PUSH1 0x0 REVERT JUMPDEST POP POP POP POP POP DUP1 MLOAD DUP3 MLOAD EQ PUSH3 0x2B1 JUMPI PUSH1 0x40 MLOAD PUSH32 0x8C379A000000000000000000000000000000000000000000000000000000000 DUP2 MSTORE PUSH1 0x4 ADD PUSH3 0x2A8 SWAP1 PUSH3 0x9B6 JUMP JUMPDEST PUSH1 0x40 MLOAD DUP1 SWAP2 SUB SWAP1 REVERT JUMPDEST CALLER PUSH1 0x4 PUSH1 0x0 PUSH2 0x100 EXP DUP2 SLOAD DUP2 PUSH20 0xFFFFFFFFFFFFFFFFFFFFFFFFFFFFFFFFFFFFFFFF MUL NOT AND SWAP1 DUP4 PUSH20 0xFFFFFFFFFFFFFFFFFFFFFFFFFFFFFFFFFFFFFFFF AND MUL OR SWAP1 SSTORE POP DUP2 PUSH1 0x5 SWAP1 DUP1 MLOAD SWAP1 PUSH1 0x20 ADD SWAP1 PUSH3 0x30A SWAP3 SWAP2 SWAP1 PUSH3 0x3A9 JUMP JUMPDEST POP PUSH1 0x0 JUMPDEST DUP3 MLOAD DUP2 LT ISZERO PUSH3 0x3A0 JUMPI DUP2 DUP2 DUP2 MLOAD DUP2 LT PUSH3 0x32E JUMPI PUSH3 0x32D PUSH3 0x9D8 JUMP JUMPDEST JUMPDEST PUSH1 0x20 MUL PUSH1 0x20 ADD ADD MLOAD PUSH1 0x6 DUP5 DUP4 DUP2 MLOAD DUP2 LT PUSH3 0x34E JUMPI PUSH3 0x34D PUSH3 0x9D8 JUMP JUMPDEST JUMPDEST PUSH1 0x20 MUL PUSH1 0x20 ADD ADD MLOAD PUSH1 0x40 MLOAD PUSH3 0x365 SWAP2 SWAP1 PUSH3 0xA54 JUMP JUMPDEST SWAP1 DUP2 MSTORE PUSH1 0x20 ADD PUSH1 0x40 MLOAD DUP1 SWAP2 SUB SWAP1 KECCAK256 PUSH1 0x0 PUSH2 0x100 EXP DUP2 SLOAD DUP2 PUSH1 0xFF MUL NOT AND SWAP1 DUP4 ISZERO ISZERO MUL OR SWAP1 SSTORE POP DUP1 DUP1 PUSH3 0x397 SWAP1 PUSH3 0xAA6 JUMP JUMPDEST SWAP2 POP POP PUSH3 0x30E JUMP JUMPDEST POP POP POP PUSH3 0xE10 JUMP JUMPDEST DUP3 DUP1 SLOAD DUP3 DUP3 SSTORE SWAP1 PUSH1 0x0 MSTORE PUSH1 0x20 PUSH1 0x0 KECCAK256 SWAP1 DUP2 ADD SWAP3 DUP3 ISZERO PUSH3 0x3F6 JUMPI SWAP2 PUSH1 0x20 MUL DUP3 ADD JUMPDEST DUP3 DUP2 GT ISZERO PUSH3 0x3F5 JUMPI DUP3 MLOAD DUP3 SWAP1 DUP2 PUSH3 0x3E4 SWAP2 SWAP1 PUSH3 0xD29 JUMP JUMPDEST POP SWAP2 PUSH1 0x20 ADD SWAP2 SWAP1 PUSH1 0x1 ADD SWAP1 PUSH3 0x3CA JUMP JUMPDEST JUMPDEST POP SWAP1 POP PUSH3 0x405 SWAP2 SWAP1 PUSH3 0x409 JUMP JUMPDEST POP SWAP1 JUMP JUMPDEST JUMPDEST DUP1 DUP3 GT ISZERO PUSH3 0x42D JUMPI PUSH1 0x0 DUP2 DUP2 PUSH3 0x423 SWAP2 SWAP1 PUSH3 0x431 JUMP JUMPDEST POP PUSH1 0x1 ADD PUSH3 0x40A JUMP JUMPDEST POP SWAP1 JUMP JUMPDEST POP DUP1 SLOAD PUSH3 0x43F SWAP1 PUSH3 0xB22 JUMP JUMPDEST PUSH1 0x0 DUP3 SSTORE DUP1 PUSH1 0x1F LT PUSH3 0x453 JUMPI POP PUSH3 0x474 JUMP JUMPDEST PUSH1 0x1F ADD PUSH1 0x20 SWAP1 DIV SWAP1 PUSH1 0x0 MSTORE PUSH1 0x20 PUSH1 0x0 KECCAK256 SWAP1 DUP2 ADD SWAP1 PUSH3 0x473 SWAP2 SWAP1 PUSH3 0x477 JUMP JUMPDEST JUMPDEST POP JUMP JUMPDEST JUMPDEST DUP1 DUP3 GT ISZERO PUSH3 0x492 JUMPI PUSH1 0x0 DUP2 PUSH1 0x0 SWAP1 SSTORE POP PUSH1 0x1 ADD PUSH3 0x478 JUMP JUMPDEST POP SWAP1 JUMP JUMPDEST PUSH1 0x0 PUSH1 0x40 MLOAD SWAP1 POP SWAP1 JUMP JUMPDEST PUSH1 0x0 DUP1 REVERT JUMPDEST PUSH1 0x0 DUP1 REVERT JUMPDEST PUSH1 0x0 DUP1 REVERT JUMPDEST PUSH1 0x0 PUSH1 0x1F NOT PUSH1 0x1F DUP4 ADD AND SWAP1 POP SWAP2 SWAP1 POP JUMP JUMPDEST PUSH32 0x4E487B7100000000000000000000000000000000000000000000000000000000 PUSH1 0x0 MSTORE PUSH1 0x41 PUSH1 0x4 MSTORE PUSH1 0x24 PUSH1 0x0 REVERT JUMPDEST PUSH3 0x4FA DUP3 PUSH3 0x4AF JUMP JUMPDEST DUP2 ADD DUP2 DUP2 LT PUSH8 0xFFFFFFFFFFFFFFFF DUP3 GT OR ISZERO PUSH3 0x51C JUMPI PUSH3 0x51B PUSH3 0x4C0 JUMP JUMPDEST JUMPDEST DUP1 PUSH1 0x40 MSTORE POP POP POP JUMP JUMPDEST PUSH1 0x0 PUSH3 0x531 PUSH3 0x496 JUMP JUMPDEST SWAP1 POP PUSH3 0x53F DUP3 DUP3 PUSH3 0x4EF JUMP JUMPDEST SWAP2 SWAP1 POP JUMP JUMPDEST PUSH1 0x0 PUSH8 0xFFFFFFFFFFFFFFFF DUP3 GT ISZERO PUSH3 0x562 JUMPI PUSH3 0x561 PUSH3 0x4C0 JUMP JUMPDEST JUMPDEST PUSH1 0x20 DUP3 MUL SWAP1 POP PUSH1 0x20 DUP2 ADD SWAP1 POP SWAP2 SWAP1 POP JUMP JUMPDEST PUSH1 0x0 DUP1 REVERT JUMPDEST PUSH1 0x0 DUP1 REVERT JUMPDEST PUSH1 0x0 PUSH8 0xFFFFFFFFFFFFFFFF DUP3 GT ISZERO PUSH3 0x59B JUMPI PUSH3 0x59A PUSH3 0x4C0 JUMP JUMPDEST JUMPDEST PUSH3 0x5A6 DUP3 PUSH3 0x4AF JUMP JUMPDEST SWAP1 POP PUSH1 0x20 DUP2 ADD SWAP1 POP SWAP2 SWAP1 POP JUMP JUMPDEST PUSH1 0x0 JUMPDEST DUP4 DUP2 LT ISZERO PUSH3 0x5D3 JUMPI DUP1 DUP3 ADD MLOAD DUP2 DUP5 ADD MSTORE PUSH1 0x20 DUP2 ADD SWAP1 POP PUSH3 0x5B6 JUMP JUMPDEST PUSH1 0x0 DUP5 DUP5 ADD MSTORE POP POP POP POP JUMP JUMPDEST PUSH1 0x0 PUSH3 0x5F6 PUSH3 0x5F0 DUP5 PUSH3 0x57D JUMP JUMPDEST PUSH3 0x525 JUMP JUMPDEST SWAP1 POP DUP3 DUP2 MSTORE PUSH1 0x20 DUP2 ADD DUP5 DUP5 DUP5 ADD GT ISZERO PUSH3 0x615 JUMPI PUSH3 0x614 PUSH3 0x578 JUMP JUMPDEST JUMPDEST PUSH3 0x622 DUP5 DUP3 DUP6 PUSH3 0x5B3 JUMP JUMPDEST POP SWAP4 SWAP3 POP POP POP JUMP JUMPDEST PUSH1 0x0 DUP3 PUSH1 0x1F DUP4 ADD SLT PUSH3 0x642 JUMPI PUSH3 0x641 PUSH3 0x4AA JUMP JUMPDEST JUMPDEST DUP2 MLOAD PUSH3 0x654 DUP5 DUP3 PUSH1 0x20 DUP7 ADD PUSH3 0x5DF JUMP JUMPDEST SWAP2 POP POP SWAP3 SWAP2 POP POP JUMP JUMPDEST PUSH1 0x0 PUSH3 0x674 PUSH3 0x66E DUP5 PUSH3 0x544 JUMP JUMPDEST PUSH3 0x525 JUMP JUMPDEST SWAP1 POP DUP1 DUP4 DUP3 MSTORE PUSH1 0x20 DUP3 ADD SWAP1 POP PUSH1 0x20 DUP5 MUL DUP4 ADD DUP6 DUP2 GT ISZERO PUSH3 0x69A JUMPI PUSH3 0x699 PUSH3 0x573 JUMP JUMPDEST JUMPDEST DUP4 JUMPDEST DUP2 DUP2 LT ISZERO PUSH3 0x6E8 JUMPI DUP1 MLOAD PUSH8 0xFFFFFFFFFFFFFFFF DUP2 GT ISZERO PUSH3 0x6C3 JUMPI PUSH3 0x6C2 PUSH3 0x4AA JUMP JUMPDEST JUMPDEST DUP1 DUP7 ADD PUSH3 0x6D2 DUP10 DUP3 PUSH3 0x62A JUMP JUMPDEST DUP6 MSTORE PUSH1 0x20 DUP6 ADD SWAP5 POP POP POP PUSH1 0x20 DUP2 ADD SWAP1 POP PUSH3 0x69C JUMP JUMPDEST POP POP POP SWAP4 SWAP3 POP POP POP JUMP JUMPDEST PUSH1 0x0 DUP3 PUSH1 0x1F DUP4 ADD SLT PUSH3 0x70A JUMPI PUSH3 0x709 PUSH3 0x4AA JUMP JUMPDEST JUMPDEST DUP2 MLOAD PUSH3 0x71C DUP5 DUP3 PUSH1 0x20 DUP7 ADD PUSH3 0x65D JUMP JUMPDEST SWAP2 POP POP SWAP3 SWAP2 POP POP JUMP JUMPDEST PUSH1 0x0 PUSH8 0xFFFFFFFFFFFFFFFF DUP3 GT ISZERO PUSH3 0x743 JUMPI PUSH3 0x742 PUSH3 0x4C0 JUMP JUMPDEST JUMPDEST PUSH1 0x20 DUP3 MUL SWAP1 POP PUSH1 0x20 DUP2 ADD SWAP1 POP SWAP2 SWAP1 POP JUMP JUMPDEST PUSH1 0x0 DUP2 ISZERO ISZERO SWAP1 POP SWAP2 SWAP1 POP JUMP JUMPDEST PUSH3 0x76B DUP2 PUSH3 0x754 JUMP JUMPDEST DUP2 EQ PUSH3 0x777 JUMPI PUSH1 0x0 DUP1 REVERT JUMPDEST POP JUMP JUMPDEST PUSH1 0x0 DUP2 MLOAD SWAP1 POP PUSH3 0x78B DUP2 PUSH3 0x760 JUMP JUMPDEST SWAP3 SWAP2 POP POP JUMP JUMPDEST PUSH1 0x0 PUSH3 0x7A8 PUSH3 0x7A2 DUP5 PUSH3 0x725 JUMP JUMPDEST PUSH3 0x525 JUMP JUMPDEST SWAP1 POP DUP1 DUP4 DUP3 MSTORE PUSH1 0x20 DUP3 ADD SWAP1 POP PUSH1 0x20 DUP5 MUL DUP4 ADD DUP6 DUP2 GT ISZERO PUSH3 0x7CE JUMPI PUSH3 0x7CD PUSH3 0x573 JUMP JUMPDEST JUMPDEST DUP4 JUMPDEST DUP2 DUP2 LT ISZERO PUSH3 0x7FB JUMPI DUP1 PUSH3 0x7E6 DUP9 DUP3 PUSH3 0x77A JUMP JUMPDEST DUP5 MSTORE PUSH1 0x20 DUP5 ADD SWAP4 POP POP PUSH1 0x20 DUP2 ADD SWAP1 POP PUSH3 0x7D0 JUMP JUMPDEST POP POP POP SWAP4 SWAP3 POP POP POP JUMP JUMPDEST PUSH1 0x0 DUP3 PUSH1 0x1F DUP4 ADD SLT PUSH3 0x81D JUMPI PUSH3 0x81C PUSH3 0x4AA JUMP JUMPDEST JUMPDEST DUP2 MLOAD PUSH3 0x82F DUP5 DUP3 PUSH1 0x20 DUP7 ADD PUSH3 0x791 JUMP JUMPDEST SWAP2 POP POP SWAP3 SWAP2 POP POP JUMP JUMPDEST PUSH1 0x0 DUP1 PUSH1 0x40 DUP4 DUP6 SUB SLT ISZERO PUSH3 0x852 JUMPI PUSH3 0x851 PUSH3 0x4A0 JUMP JUMPDEST JUMPDEST PUSH1 0x0 DUP4 ADD MLOAD PUSH8 0xFFFFFFFFFFFFFFFF DUP2 GT ISZERO PUSH3 0x873 JUMPI PUSH3 0x872 PUSH3 0x4A5 JUMP JUMPDEST JUMPDEST PUSH3 0x881 DUP6 DUP3 DUP7 ADD PUSH3 0x6F2 JUMP JUMPDEST SWAP3 POP POP PUSH1 0x20 DUP4 ADD MLOAD PUSH8 0xFFFFFFFFFFFFFFFF DUP2 GT ISZERO PUSH3 0x8A5 JUMPI PUSH3 0x8A4 PUSH3 0x4A5 JUMP JUMPDEST JUMPDEST PUSH3 0x8B3 DUP6 DUP3 DUP7 ADD PUSH3 0x805 JUMP JUMPDEST SWAP2 POP POP SWAP3 POP SWAP3 SWAP1 POP JUMP JUMPDEST PUSH1 0x0 DUP3 DUP3 MSTORE PUSH1 0x20 DUP3 ADD SWAP1 POP SWAP3 SWAP2 POP POP JUMP JUMPDEST PUSH32 0x41646472657373206F662056616C696461746F7220436F6E7472616374206973 PUSH1 0x0 DUP3 ADD MSTORE PUSH32 0x206E6F7420736574000000000000000000000000000000000000000000000000 PUSH1 0x20 DUP3 ADD MSTORE POP JUMP JUMPDEST PUSH1 0x0 PUSH3 0x92C PUSH1 0x28 DUP4 PUSH3 0x8BD JUMP JUMPDEST SWAP2 POP PUSH3 0x939 DUP3 PUSH3 0x8CE JUMP JUMPDEST PUSH1 0x40 DUP3 ADD SWAP1 POP SWAP2 SWAP1 POP JUMP JUMPDEST PUSH1 0x0 PUSH1 0x20 DUP3 ADD SWAP1 POP DUP2 DUP2 SUB PUSH1 0x0 DUP4 ADD MSTORE PUSH3 0x95F DUP2 PUSH3 0x91D JUMP JUMPDEST SWAP1 POP SWAP2 SWAP1 POP JUMP JUMPDEST PUSH32 0x4D69736D617463686564206172726179206C656E677468730000000000000000 PUSH1 0x0 DUP3 ADD MSTORE POP JUMP JUMPDEST PUSH1 0x0 PUSH3 0x99E PUSH1 0x18 DUP4 PUSH3 0x8BD JUMP JUMPDEST SWAP2 POP PUSH3 0x9AB DUP3 PUSH3 0x966 JUMP JUMPDEST PUSH1 0x20 DUP3 ADD SWAP1 POP SWAP2 SWAP1 POP JUMP JUMPDEST PUSH1 0x0 PUSH1 0x20 DUP3 ADD SWAP1 POP DUP2 DUP2 SUB PUSH1 0x0 DUP4 ADD MSTORE PUSH3 0x9D1 DUP2 PUSH3 0x98F JUMP JUMPDEST SWAP1 POP SWAP2 SWAP1 POP JUMP JUMPDEST PUSH32 0x4E487B7100000000000000000000000000000000000000000000000000000000 PUSH1 0x0 MSTORE PUSH1 0x32 PUSH1 0x4 MSTORE PUSH1 0x24 PUSH1 0x0 REVERT JUMPDEST PUSH1 0x0 DUP2 MLOAD SWAP1 POP SWAP2 SWAP1 POP JUMP JUMPDEST PUSH1 0x0 DUP2 SWAP1 POP SWAP3 SWAP2 POP POP JUMP JUMPDEST PUSH1 0x0 PUSH3 0xA2A DUP3 PUSH3 0xA07 JUMP JUMPDEST PUSH3 0xA36 DUP2 DUP6 PUSH3 0xA12 JUMP JUMPDEST SWAP4 POP PUSH3 0xA48 DUP2 DUP6 PUSH1 0x20 DUP7 ADD PUSH3 0x5B3 JUMP JUMPDEST DUP1 DUP5 ADD SWAP2 POP POP SWAP3 SWAP2 POP POP JUMP JUMPDEST PUSH1 0x0 PUSH3 0xA62 DUP3 DUP5 PUSH3 0xA1D JUMP JUMPDEST SWAP2 POP DUP2 SWAP1 POP SWAP3 SWAP2 POP POP JUMP JUMPDEST PUSH32 0x4E487B7100000000000000000000000000000000000000000000000000000000 PUSH1 0x0 MSTORE PUSH1 0x11 PUSH1 0x4 MSTORE PUSH1 0x24 PUSH1 0x0 REVERT JUMPDEST PUSH1 0x0 DUP2 SWAP1 POP SWAP2 SWAP1 POP JUMP JUMPDEST PUSH1 0x0 PUSH3 0xAB3 DUP3 PUSH3 0xA9C JUMP JUMPDEST SWAP2 POP PUSH32 0xFFFFFFFFFFFFFFFFFFFFFFFFFFFFFFFFFFFFFFFFFFFFFFFFFFFFFFFFFFFFFFFF DUP3 SUB PUSH3 0xAE8 JUMPI PUSH3 0xAE7 PUSH3 0xA6D JUMP JUMPDEST JUMPDEST PUSH1 0x1 DUP3 ADD SWAP1 POP SWAP2 SWAP1 POP JUMP JUMPDEST PUSH32 0x4E487B7100000000000000000000000000000000000000000000000000000000 PUSH1 0x0 MSTORE PUSH1 0x22 PUSH1 0x4 MSTORE PUSH1 0x24 PUSH1 0x0 REVERT JUMPDEST PUSH1 0x0 PUSH1 0x2 DUP3 DIV SWAP1 POP PUSH1 0x1 DUP3 AND DUP1 PUSH3 0xB3B JUMPI PUSH1 0x7F DUP3 AND SWAP2 POP JUMPDEST PUSH1 0x20 DUP3 LT DUP2 SUB PUSH3 0xB51 JUMPI PUSH3 0xB50 PUSH3 0xAF3 JUMP JUMPDEST JUMPDEST POP SWAP2 SWAP1 POP JUMP JUMPDEST PUSH1 0x0 DUP2 SWAP1 POP DUP2 PUSH1 0x0 MSTORE PUSH1 0x20 PUSH1 0x0 KECCAK256 SWAP1 POP SWAP2 SWAP1 POP JUMP JUMPDEST PUSH1 0x0 PUSH1 0x20 PUSH1 0x1F DUP4 ADD DIV SWAP1 POP SWAP2 SWAP1 POP JUMP JUMPDEST PUSH1 0x0 DUP3 DUP3 SHL SWAP1 POP SWAP3 SWAP2 POP POP JUMP JUMPDEST PUSH1 0x0 PUSH1 0x8 DUP4 MUL PUSH3 0xBBB PUSH32 0xFFFFFFFFFFFFFFFFFFFFFFFFFFFFFFFFFFFFFFFFFFFFFFFFFFFFFFFFFFFFFFFF DUP3 PUSH3 0xB7C JUMP JUMPDEST PUSH3 0xBC7 DUP7 DUP4 PUSH3 0xB7C JUMP JUMPDEST SWAP6 POP DUP1 NOT DUP5 AND SWAP4 POP DUP1 DUP7 AND DUP5 OR SWAP3 POP POP POP SWAP4 SWAP3 POP POP POP JUMP JUMPDEST PUSH1 0x0 DUP2 SWAP1 POP SWAP2 SWAP1 POP JUMP JUMPDEST PUSH1 0x0 PUSH3 0xC0A PUSH3 0xC04 PUSH3 0xBFE DUP5 PUSH3 0xA9C JUMP JUMPDEST PUSH3 0xBDF JUMP JUMPDEST PUSH3 0xA9C JUMP JUMPDEST SWAP1 POP SWAP2 SWAP1 POP JUMP JUMPDEST PUSH1 0x0 DUP2 SWAP1 POP SWAP2 SWAP1 POP JUMP JUMPDEST PUSH3 0xC26 DUP4 PUSH3 0xBE9 JUMP JUMPDEST PUSH3 0xC3E PUSH3 0xC35 DUP3 PUSH3 0xC11 JUMP JUMPDEST DUP5 DUP5 SLOAD PUSH3 0xB89 JUMP JUMPDEST DUP3 SSTORE POP POP POP POP JUMP JUMPDEST PUSH1 0x0 SWAP1 JUMP JUMPDEST PUSH3 0xC55 PUSH3 0xC46 JUMP JUMPDEST PUSH3 0xC62 DUP2 DUP5 DUP5 PUSH3 0xC1B JUMP JUMPDEST POP POP POP JUMP JUMPDEST JUMPDEST DUP2 DUP2 LT ISZERO PUSH3 0xC8A JUMPI PUSH3 0xC7E PUSH1 0x0 DUP3 PUSH3 0xC4B JUMP JUMPDEST PUSH1 0x1 DUP2 ADD SWAP1 POP PUSH3 0xC68 JUMP JUMPDEST POP POP JUMP JUMPDEST PUSH1 0x1F DUP3 GT ISZERO PUSH3 0xCD9 JUMPI PUSH3 0xCA3 DUP2 PUSH3 0xB57 JUMP JUMPDEST PUSH3 0xCAE DUP5 PUSH3 0xB6C JUMP JUMPDEST DUP2 ADD PUSH1 0x20 DUP6 LT ISZERO PUSH3 0xCBE JUMPI DUP2 SWAP1 POP JUMPDEST PUSH3 0xCD6 PUSH3 0xCCD DUP6 PUSH3 0xB6C JUMP JUMPDEST DUP4 ADD DUP3 PUSH3 0xC67 JUMP JUMPDEST POP POP JUMPDEST POP POP POP JUMP JUMPDEST PUSH1 0x0 DUP3 DUP3 SHR SWAP1 POP SWAP3 SWAP2 POP POP JUMP JUMPDEST PUSH1 0x0 PUSH3 0xCFE PUSH1 0x0 NOT DUP5 PUSH1 0x8 MUL PUSH3 0xCDE JUMP JUMPDEST NOT DUP1 DUP4 AND SWAP2 POP POP SWAP3 SWAP2 POP POP JUMP JUMPDEST PUSH1 0x0 PUSH3 0xD19 DUP4 DUP4 PUSH3 0xCEB JUMP JUMPDEST SWAP2 POP DUP3 PUSH1 0x2 MUL DUP3 OR SWAP1 POP SWAP3 SWAP2 POP POP JUMP JUMPDEST PUSH3 0xD34 DUP3 PUSH3 0xA07 JUMP JUMPDEST PUSH8 0xFFFFFFFFFFFFFFFF DUP2 GT ISZERO PUSH3 0xD50 JUMPI PUSH3 0xD4F PUSH3 0x4C0 JUMP JUMPDEST JUMPDEST PUSH3 0xD5C DUP3 SLOAD PUSH3 0xB22 JUMP JUMPDEST PUSH3 0xD69 DUP3 DUP3 DUP6 PUSH3 0xC8E JUMP JUMPDEST PUSH1 0x0 PUSH1 0x20 SWAP1 POP PUSH1 0x1F DUP4 GT PUSH1 0x1 DUP2 EQ PUSH3 0xDA1 JUMPI PUSH1 0x0 DUP5 ISZERO PUSH3 0xD8C JUMPI DUP3 DUP8 ADD MLOAD SWAP1 POP JUMPDEST PUSH3 0xD98 DUP6 DUP3 PUSH3 0xD0B JUMP JUMPDEST DUP7 SSTORE POP PUSH3 0xE08 JUMP JUMPDEST PUSH1 0x1F NOT DUP5 AND PUSH3 0xDB1 DUP7 PUSH3 0xB57 JUMP JUMPDEST PUSH1 0x0 JUMPDEST DUP3 DUP2 LT ISZERO PUSH3 0xDDB JUMPI DUP5 DUP10 ADD MLOAD DUP3 SSTORE PUSH1 0x1 DUP3 ADD SWAP2 POP PUSH1 0x20 DUP6 ADD SWAP5 POP PUSH1 0x20 DUP2 ADD SWAP1 POP PUSH3 0xDB4 JUMP JUMPDEST DUP7 DUP4 LT ISZERO PUSH3 0xDFB JUMPI DUP5 DUP10 ADD MLOAD PUSH3 0xDF7 PUSH1 0x1F DUP10 AND DUP3 PUSH3 0xCEB JUMP JUMPDEST DUP4 SSTORE POP JUMPDEST PUSH1 0x1 PUSH1 0x2 DUP9 MUL ADD DUP9 SSTORE POP POP POP JUMPDEST POP POP POP POP POP POP JUMP JUMPDEST PUSH2 0x2266 DUP1 PUSH3 0xE20 PUSH1 0x0 CODECOPY PUSH1 0x0 RETURN INVALID PUSH1 0x80 PUSH1 0x40 MSTORE PUSH1 0x4 CALLDATASIZE LT PUSH2 0x109 JUMPI PUSH1 0x0 CALLDATALOAD PUSH1 0xE0 SHR DUP1 PUSH4 0x97221AB7 GT PUSH2 0x95 JUMPI DUP1 PUSH4 0xC5BACB96 GT PUSH2 0x64 JUMPI DUP1 PUSH4 0xC5BACB96 EQ PUSH2 0x392 JUMPI DUP1 PUSH4 0xD1827E85 EQ PUSH2 0x3CF JUMPI DUP1 PUSH4 0xD2F7B19A EQ PUSH2 0x3D9 JUMPI DUP1 PUSH4 0xE785FE52 EQ PUSH2 0x416 JUMPI DUP1 PUSH4 0xFACD743B EQ PUSH2 0x441 JUMPI PUSH2 0x109 JUMP JUMPDEST DUP1 PUSH4 0x97221AB7 EQ PUSH2 0x2EA JUMPI DUP1 PUSH4 0xA8C3C850 EQ PUSH2 0x315 JUMPI DUP1 PUSH4 0xB2BDFA7B EQ PUSH2 0x33E JUMPI DUP1 PUSH4 0xBA44F1F9 EQ PUSH2 0x369 JUMPI PUSH2 0x109 JUMP JUMPDEST DUP1 PUSH4 0x5E13C0DA GT PUSH2 0xDC JUMPI DUP1 PUSH4 0x5E13C0DA EQ PUSH2 0x1F0 JUMPI DUP1 PUSH4 0x86F763A1 EQ PUSH2 0x22D JUMPI DUP1 PUSH4 0x893D20E8 EQ PUSH2 0x256 JUMPI DUP1 PUSH4 0x8BE10194 EQ PUSH2 0x281 JUMPI DUP1 PUSH4 0x8DA5CB5B EQ PUSH2 0x2BF JUMPI PUSH2 0x109 JUMP JUMPDEST DUP1 PUSH4 0x2A569E6 EQ PUSH2 0x10E JUMPI DUP1 PUSH4 0x2BE49CF0 EQ PUSH2 0x14B JUMPI DUP1 PUSH4 0x31B1B978 EQ PUSH2 0x188 JUMPI DUP1 PUSH4 0x42CBB15C EQ PUSH2 0x1C5 JUMPI JUMPDEST PUSH1 0x0 DUP1 REVERT JUMPDEST CALLVALUE DUP1 ISZERO PUSH2 0x11A JUMPI PUSH1 0x0 DUP1 REVERT JUMPDEST POP PUSH2 0x135 PUSH1 0x4 DUP1 CALLDATASIZE SUB DUP2 ADD SWAP1 PUSH2 0x130 SWAP2 SWAP1 PUSH2 0x120A JUMP JUMPDEST PUSH2 0x47E JUMP JUMPDEST PUSH1 0x40 MLOAD PUSH2 0x142 SWAP2 SWAP1 PUSH2 0x12C7 JUMP JUMPDEST PUSH1 0x40 MLOAD DUP1 SWAP2 SUB SWAP1 RETURN JUMPDEST CALLVALUE DUP1 ISZERO PUSH2 0x157 JUMPI PUSH1 0x0 DUP1 REVERT JUMPDEST POP PUSH2 0x172 PUSH1 0x4 DUP1 CALLDATASIZE SUB DUP2 ADD SWAP1 PUSH2 0x16D SWAP2 SWAP1 PUSH2 0x141E JUMP JUMPDEST PUSH2 0x657 JUMP JUMPDEST PUSH1 0x40 MLOAD PUSH2 0x17F SWAP2 SWAP1 PUSH2 0x1482 JUMP JUMPDEST PUSH1 0x40 MLOAD DUP1 SWAP2 SUB SWAP1 RETURN JUMPDEST CALLVALUE DUP1 ISZERO PUSH2 0x194 JUMPI PUSH1 0x0 DUP1 REVERT JUMPDEST POP PUSH2 0x1AF PUSH1 0x4 DUP1 CALLDATASIZE SUB DUP2 ADD SWAP1 PUSH2 0x1AA SWAP2 SWAP1 PUSH2 0x120A JUMP JUMPDEST PUSH2 0x6C9 JUMP JUMPDEST PUSH1 0x40 MLOAD PUSH2 0x1BC SWAP2 SWAP1 PUSH2 0x14F2 JUMP JUMPDEST PUSH1 0x40 MLOAD DUP1 SWAP2 SUB SWAP1 RETURN JUMPDEST CALLVALUE DUP1 ISZERO PUSH2 0x1D1 JUMPI PUSH1 0x0 DUP1 REVERT JUMPDEST POP PUSH2 0x1DA PUSH2 0x775 JUMP JUMPDEST PUSH1 0x40 MLOAD PUSH2 0x1E7 SWAP2 SWAP1 PUSH2 0x1523 JUMP JUMPDEST PUSH1 0x40 MLOAD DUP1 SWAP2 SUB SWAP1 RETURN JUMPDEST CALLVALUE DUP1 ISZERO PUSH2 0x1FC JUMPI PUSH1 0x0 DUP1 REVERT JUMPDEST POP PUSH2 0x217 PUSH1 0x4 DUP1 CALLDATASIZE SUB DUP2 ADD SWAP1 PUSH2 0x212 SWAP2 SWAP1 PUSH2 0x141E JUMP JUMPDEST PUSH2 0x796 JUMP JUMPDEST PUSH1 0x40 MLOAD PUSH2 0x224 SWAP2 SWAP1 PUSH2 0x1482 JUMP JUMPDEST PUSH1 0x40 MLOAD DUP1 SWAP2 SUB SWAP1 RETURN JUMPDEST CALLVALUE DUP1 ISZERO PUSH2 0x239 JUMPI PUSH1 0x0 DUP1 REVERT JUMPDEST POP PUSH2 0x254 PUSH1 0x4 DUP1 CALLDATASIZE SUB DUP2 ADD SWAP1 PUSH2 0x24F SWAP2 SWAP1 PUSH2 0x156A JUMP JUMPDEST PUSH2 0x7CC JUMP JUMPDEST STOP JUMPDEST CALLVALUE DUP1 ISZERO PUSH2 0x262 JUMPI PUSH1 0x0 DUP1 REVERT JUMPDEST POP PUSH2 0x26B PUSH2 0x893 JUMP JUMPDEST PUSH1 0x40 MLOAD PUSH2 0x278 SWAP2 SWAP1 PUSH2 0x1607 JUMP JUMPDEST PUSH1 0x40 MLOAD DUP1 SWAP2 SUB SWAP1 RETURN JUMPDEST CALLVALUE DUP1 ISZERO PUSH2 0x28D JUMPI PUSH1 0x0 DUP1 REVERT JUMPDEST POP PUSH2 0x2A8 PUSH1 0x4 DUP1 CALLDATASIZE SUB DUP2 ADD SWAP1 PUSH2 0x2A3 SWAP2 SWAP1 PUSH2 0x120A JUMP JUMPDEST PUSH2 0x8BC JUMP JUMPDEST PUSH1 0x40 MLOAD PUSH2 0x2B6 SWAP3 SWAP2 SWAP1 PUSH2 0x1622 JUMP JUMPDEST PUSH1 0x40 MLOAD DUP1 SWAP2 SUB SWAP1 RETURN JUMPDEST CALLVALUE DUP1 ISZERO PUSH2 0x2CB JUMPI PUSH1 0x0 DUP1 REVERT JUMPDEST POP PUSH2 0x2D4 PUSH2 0x968 JUMP JUMPDEST PUSH1 0x40 MLOAD PUSH2 0x2E1 SWAP2 SWAP1 PUSH2 0x1607 JUMP JUMPDEST PUSH1 0x40 MLOAD DUP1 SWAP2 SUB SWAP1 RETURN JUMPDEST CALLVALUE DUP1 ISZERO PUSH2 0x2F6 JUMPI PUSH1 0x0 DUP1 REVERT JUMPDEST POP PUSH2 0x2FF PUSH2 0x98E JUMP JUMPDEST PUSH1 0x40 MLOAD PUSH2 0x30C SWAP2 SWAP1 PUSH2 0x175E JUMP JUMPDEST PUSH1 0x40 MLOAD DUP1 SWAP2 SUB SWAP1 RETURN JUMPDEST CALLVALUE DUP1 ISZERO PUSH2 0x321 JUMPI PUSH1 0x0 DUP1 REVERT JUMPDEST POP PUSH2 0x33C PUSH1 0x4 DUP1 CALLDATASIZE SUB DUP2 ADD SWAP1 PUSH2 0x337 SWAP2 SWAP1 PUSH2 0x120A JUMP JUMPDEST PUSH2 0xA67 JUMP JUMPDEST STOP JUMPDEST CALLVALUE DUP1 ISZERO PUSH2 0x34A JUMPI PUSH1 0x0 DUP1 REVERT JUMPDEST POP PUSH2 0x353 PUSH2 0xB4C JUMP JUMPDEST PUSH1 0x40 MLOAD PUSH2 0x360 SWAP2 SWAP1 PUSH2 0x1607 JUMP JUMPDEST PUSH1 0x40 MLOAD DUP1 SWAP2 SUB SWAP1 RETURN JUMPDEST CALLVALUE DUP1 ISZERO PUSH2 0x375 JUMPI PUSH1 0x0 DUP1 REVERT JUMPDEST POP PUSH2 0x390 PUSH1 0x4 DUP1 CALLDATASIZE SUB DUP2 ADD SWAP1 PUSH2 0x38B SWAP2 SWAP1 PUSH2 0x1821 JUMP JUMPDEST PUSH2 0xB70 JUMP JUMPDEST STOP JUMPDEST CALLVALUE DUP1 ISZERO PUSH2 0x39E JUMPI PUSH1 0x0 DUP1 REVERT JUMPDEST POP PUSH2 0x3B9 PUSH1 0x4 DUP1 CALLDATASIZE SUB DUP2 ADD SWAP1 PUSH2 0x3B4 SWAP2 SWAP1 PUSH2 0x120A JUMP JUMPDEST PUSH2 0xD41 JUMP JUMPDEST PUSH1 0x40 MLOAD PUSH2 0x3C6 SWAP2 SWAP1 PUSH2 0x1523 JUMP JUMPDEST PUSH1 0x40 MLOAD DUP1 SWAP2 SUB SWAP1 RETURN JUMPDEST PUSH2 0x3D7 PUSH2 0xE92 JUMP JUMPDEST STOP JUMPDEST CALLVALUE DUP1 ISZERO PUSH2 0x3E5 JUMPI PUSH1 0x0 DUP1 REVERT JUMPDEST POP PUSH2 0x400 PUSH1 0x4 DUP1 CALLDATASIZE SUB DUP2 ADD SWAP1 PUSH2 0x3FB SWAP2 SWAP1 PUSH2 0x18BC JUMP JUMPDEST PUSH2 0x100F JUMP JUMPDEST PUSH1 0x40 MLOAD PUSH2 0x40D SWAP2 SWAP1 PUSH2 0x1482 JUMP JUMPDEST PUSH1 0x40 MLOAD DUP1 SWAP2 SUB SWAP1 RETURN JUMPDEST CALLVALUE DUP1 ISZERO PUSH2 0x422 JUMPI PUSH1 0x0 DUP1 REVERT JUMPDEST POP PUSH2 0x42B PUSH2 0x1054 JUMP JUMPDEST PUSH1 0x40 MLOAD PUSH2 0x438 SWAP2 SWAP1 PUSH2 0x1607 JUMP JUMPDEST PUSH1 0x40 MLOAD DUP1 SWAP2 SUB SWAP1 RETURN JUMPDEST CALLVALUE DUP1 ISZERO PUSH2 0x44D JUMPI PUSH1 0x0 DUP1 REVERT JUMPDEST POP PUSH2 0x468 PUSH1 0x4 DUP1 CALLDATASIZE SUB DUP2 ADD SWAP1 PUSH2 0x463 SWAP2 SWAP1 PUSH2 0x1918 JUMP JUMPDEST PUSH2 0x107A JUMP JUMPDEST PUSH1 0x40 MLOAD PUSH2 0x475 SWAP2 SWAP1 PUSH2 0x1482 JUMP JUMPDEST PUSH1 0x40 MLOAD DUP1 SWAP2 SUB SWAP1 RETURN JUMPDEST PUSH1 0x60 PUSH1 0x1 PUSH1 0x0 SWAP1 SLOAD SWAP1 PUSH2 0x100 EXP SWAP1 DIV PUSH20 0xFFFFFFFFFFFFFFFFFFFFFFFFFFFFFFFFFFFFFFFF AND PUSH20 0xFFFFFFFFFFFFFFFFFFFFFFFFFFFFFFFFFFFFFFFF AND PUSH4 0xFACD743B CALLER PUSH1 0x40 MLOAD DUP3 PUSH4 0xFFFFFFFF AND PUSH1 0xE0 SHL DUP2 MSTORE PUSH1 0x4 ADD PUSH2 0x4DB SWAP2 SWAP1 PUSH2 0x1607 JUMP JUMPDEST PUSH1 0x20 PUSH1 0x40 MLOAD DUP1 DUP4 SUB DUP2 DUP7 GAS STATICCALL ISZERO DUP1 ISZERO PUSH2 0x4F8 JUMPI RETURNDATASIZE PUSH1 0x0 DUP1 RETURNDATACOPY RETURNDATASIZE PUSH1 0x0 REVERT JUMPDEST POP POP POP POP PUSH1 0x40 MLOAD RETURNDATASIZE PUSH1 0x1F NOT PUSH1 0x1F DUP3 ADD AND DUP3 ADD DUP1 PUSH1 0x40 MSTORE POP DUP2 ADD SWAP1 PUSH2 0x51C SWAP2 SWAP1 PUSH2 0x195A JUMP JUMPDEST DUP1 PUSH2 0x572 JUMPI POP PUSH1 0x0 DUP1 SLOAD SWAP1 PUSH2 0x100 EXP SWAP1 DIV PUSH20 0xFFFFFFFFFFFFFFFFFFFFFFFFFFFFFFFFFFFFFFFF AND PUSH20 0xFFFFFFFFFFFFFFFFFFFFFFFFFFFFFFFFFFFFFFFF AND CALLER PUSH20 0xFFFFFFFFFFFFFFFFFFFFFFFFFFFFFFFFFFFFFFFF AND EQ JUMPDEST PUSH2 0x5B1 JUMPI PUSH1 0x40 MLOAD PUSH32 0x8C379A000000000000000000000000000000000000000000000000000000000 DUP2 MSTORE PUSH1 0x4 ADD PUSH2 0x5A8 SWAP1 PUSH2 0x1A1F JUMP JUMPDEST PUSH1 0x40 MLOAD DUP1 SWAP2 SUB SWAP1 REVERT JUMPDEST PUSH1 0x3 PUSH1 0x0 DUP4 DUP2 MSTORE PUSH1 0x20 ADD SWAP1 DUP2 MSTORE PUSH1 0x20 ADD PUSH1 0x0 KECCAK256 PUSH1 0x0 ADD DUP1 SLOAD PUSH2 0x5D2 SWAP1 PUSH2 0x1A6E JUMP JUMPDEST DUP1 PUSH1 0x1F ADD PUSH1 0x20 DUP1 SWAP2 DIV MUL PUSH1 0x20 ADD PUSH1 0x40 MLOAD SWAP1 DUP2 ADD PUSH1 0x40 MSTORE DUP1 SWAP3 SWAP2 SWAP1 DUP2 DUP2 MSTORE PUSH1 0x20 ADD DUP3 DUP1 SLOAD PUSH2 0x5FE SWAP1 PUSH2 0x1A6E JUMP JUMPDEST DUP1 ISZERO PUSH2 0x64B JUMPI DUP1 PUSH1 0x1F LT PUSH2 0x620 JUMPI PUSH2 0x100 DUP1 DUP4 SLOAD DIV MUL DUP4 MSTORE SWAP2 PUSH1 0x20 ADD SWAP2 PUSH2 0x64B JUMP JUMPDEST DUP3 ADD SWAP2 SWAP1 PUSH1 0x0 MSTORE PUSH1 0x20 PUSH1 0x0 KECCAK256 SWAP1 JUMPDEST DUP2 SLOAD DUP2 MSTORE SWAP1 PUSH1 0x1 ADD SWAP1 PUSH1 0x20 ADD DUP1 DUP4 GT PUSH2 0x62E JUMPI DUP3 SWAP1 SUB PUSH1 0x1F AND DUP3 ADD SWAP2 JUMPDEST POP POP POP POP POP SWAP1 POP SWAP2 SWAP1 POP JUMP JUMPDEST PUSH1 0x0 PUSH1 0x7 PUSH1 0x0 CALLER PUSH20 0xFFFFFFFFFFFFFFFFFFFFFFFFFFFFFFFFFFFFFFFF AND PUSH20 0xFFFFFFFFFFFFFFFFFFFFFFFFFFFFFFFFFFFFFFFF AND DUP2 MSTORE PUSH1 0x20 ADD SWAP1 DUP2 MSTORE PUSH1 0x20 ADD PUSH1 0x0 KECCAK256 DUP3 PUSH1 0x40 MLOAD PUSH2 0x6A6 SWAP2 SWAP1 PUSH2 0x1ADB JUMP JUMPDEST SWAP1 DUP2 MSTORE PUSH1 0x20 ADD PUSH1 0x40 MLOAD DUP1 SWAP2 SUB SWAP1 KECCAK256 PUSH1 0x0 SWAP1 SLOAD SWAP1 PUSH2 0x100 EXP SWAP1 DIV PUSH1 0xFF AND SWAP1 POP SWAP2 SWAP1 POP JUMP JUMPDEST PUSH1 0x5 DUP2 DUP2 SLOAD DUP2 LT PUSH2 0x6D9 JUMPI PUSH1 0x0 DUP1 REVERT JUMPDEST SWAP1 PUSH1 0x0 MSTORE PUSH1 0x20 PUSH1 0x0 KECCAK256 ADD PUSH1 0x0 SWAP2 POP SWAP1 POP DUP1 SLOAD PUSH2 0x6F4 SWAP1 PUSH2 0x1A6E JUMP JUMPDEST DUP1 PUSH1 0x1F ADD PUSH1 0x20 DUP1 SWAP2 DIV MUL PUSH1 0x20 ADD PUSH1 0x40 MLOAD SWAP1 DUP2 ADD PUSH1 0x40 MSTORE DUP1 SWAP3 SWAP2 SWAP1 DUP2 DUP2 MSTORE PUSH1 0x20 ADD DUP3 DUP1 SLOAD PUSH2 0x720 SWAP1 PUSH2 0x1A6E JUMP JUMPDEST DUP1 ISZERO PUSH2 0x76D JUMPI DUP1 PUSH1 0x1F LT PUSH2 0x742 JUMPI PUSH2 0x100 DUP1 DUP4 SLOAD DIV MUL DUP4 MSTORE SWAP2 PUSH1 0x20 ADD SWAP2 PUSH2 0x76D JUMP JUMPDEST DUP3 ADD SWAP2 SWAP1 PUSH1 0x0 MSTORE PUSH1 0x20 PUSH1 0x0 KECCAK256 SWAP1 JUMPDEST DUP2 SLOAD DUP2 MSTORE SWAP1 PUSH1 0x1 ADD SWAP1 PUSH1 0x20 ADD DUP1 DUP4 GT PUSH2 0x750 JUMPI DUP3 SWAP1 SUB PUSH1 0x1F AND DUP3 ADD SWAP2 JUMPDEST POP POP POP POP POP DUP2 JUMP JUMPDEST PUSH1 0x0 PUSH2 0x780 CALLER PUSH2 0x107A JUMP JUMPDEST ISZERO PUSH2 0x78F JUMPI PUSH1 0x2 SLOAD SWAP1 POP PUSH2 0x793 JUMP JUMPDEST NUMBER SWAP1 POP JUMPDEST SWAP1 JUMP JUMPDEST PUSH1 0x6 DUP2 DUP1 MLOAD PUSH1 0x20 DUP2 ADD DUP3 ADD DUP1 MLOAD DUP5 DUP3 MSTORE PUSH1 0x20 DUP4 ADD PUSH1 0x20 DUP6 ADD KECCAK256 DUP2 DUP4 MSTORE DUP1 SWAP6 POP POP POP POP POP POP PUSH1 0x0 SWAP2 POP SLOAD SWAP1 PUSH2 0x100 EXP SWAP1 DIV PUSH1 0xFF AND DUP2 JUMP JUMPDEST DUP1 PUSH1 0x7 PUSH1 0x0 CALLER PUSH20 0xFFFFFFFFFFFFFFFFFFFFFFFFFFFFFFFFFFFFFFFF AND PUSH20 0xFFFFFFFFFFFFFFFFFFFFFFFFFFFFFFFFFFFFFFFF AND DUP2 MSTORE PUSH1 0x20 ADD SWAP1 DUP2 MSTORE PUSH1 0x20 ADD PUSH1 0x0 KECCAK256 DUP4 PUSH1 0x40 MLOAD PUSH2 0x81A SWAP2 SWAP1 PUSH2 0x1ADB JUMP JUMPDEST SWAP1 DUP2 MSTORE PUSH1 0x20 ADD PUSH1 0x40 MLOAD DUP1 SWAP2 SUB SWAP1 KECCAK256 PUSH1 0x0 PUSH2 0x100 EXP DUP2 SLOAD DUP2 PUSH1 0xFF MUL NOT AND SWAP1 DUP4 ISZERO ISZERO MUL OR SWAP1 SSTORE POP CALLER PUSH20 0xFFFFFFFFFFFFFFFFFFFFFFFFFFFFFFFFFFFFFFFF AND PUSH32 0x2F09EA51064BE5679F31A4AE5E50022ADF00C54A42862FE2C90BABAE1508544D DUP4 DUP4 PUSH1 0x40 MLOAD PUSH2 0x887 SWAP3 SWAP2 SWAP1 PUSH2 0x1AF2 JUMP JUMPDEST PUSH1 0x40 MLOAD DUP1 SWAP2 SUB SWAP1 LOG2 POP POP JUMP JUMPDEST PUSH1 0x0 DUP1 PUSH1 0x0 SWAP1 SLOAD SWAP1 PUSH2 0x100 EXP SWAP1 DIV PUSH20 0xFFFFFFFFFFFFFFFFFFFFFFFFFFFFFFFFFFFFFFFF AND SWAP1 POP SWAP1 JUMP JUMPDEST PUSH1 0x3 PUSH1 0x20 MSTORE DUP1 PUSH1 0x0 MSTORE PUSH1 0x40 PUSH1 0x0 KECCAK256 PUSH1 0x0 SWAP2 POP SWAP1 POP DUP1 PUSH1 0x0 ADD DUP1 SLOAD PUSH2 0x8DF SWAP1 PUSH2 0x1A6E JUMP JUMPDEST DUP1 PUSH1 0x1F ADD PUSH1 0x20 DUP1 SWAP2 DIV MUL PUSH1 0x20 ADD PUSH1 0x40 MLOAD SWAP1 DUP2 ADD PUSH1 0x40 MSTORE DUP1 SWAP3 SWAP2 SWAP1 DUP2 DUP2 MSTORE PUSH1 0x20 ADD DUP3 DUP1 SLOAD PUSH2 0x90B SWAP1 PUSH2 0x1A6E JUMP JUMPDEST DUP1 ISZERO PUSH2 0x958 JUMPI DUP1 PUSH1 0x1F LT PUSH2 0x92D JUMPI PUSH2 0x100 DUP1 DUP4 SLOAD DIV MUL DUP4 MSTORE SWAP2 PUSH1 0x20 ADD SWAP2 PUSH2 0x958 JUMP JUMPDEST DUP3 ADD SWAP2 SWAP1 PUSH1 0x0 MSTORE PUSH1 0x20 PUSH1 0x0 KECCAK256 SWAP1 JUMPDEST DUP2 SLOAD DUP2 MSTORE SWAP1 PUSH1 0x1 ADD SWAP1 PUSH1 0x20 ADD DUP1 DUP4 GT PUSH2 0x93B JUMPI DUP3 SWAP1 SUB PUSH1 0x1F AND DUP3 ADD SWAP2 JUMPDEST POP POP POP POP POP SWAP1 DUP1 PUSH1 0x1 ADD SLOAD SWAP1 POP DUP3 JUMP JUMPDEST PUSH1 0x4 PUSH1 0x0 SWAP1 SLOAD SWAP1 PUSH2 0x100 EXP SWAP1 DIV PUSH20 0xFFFFFFFFFFFFFFFFFFFFFFFFFFFFFFFFFFFFFFFF AND DUP2 JUMP JUMPDEST PUSH1 0x60 PUSH1 0x5 DUP1 SLOAD DUP1 PUSH1 0x20 MUL PUSH1 0x20 ADD PUSH1 0x40 MLOAD SWAP1 DUP2 ADD PUSH1 0x40 MSTORE DUP1 SWAP3 SWAP2 SWAP1 DUP2 DUP2 MSTORE PUSH1 0x20 ADD PUSH1 0x0 SWAP1 JUMPDEST DUP3 DUP3 LT ISZERO PUSH2 0xA5E JUMPI DUP4 DUP3 SWAP1 PUSH1 0x0 MSTORE PUSH1 0x20 PUSH1 0x0 KECCAK256 ADD DUP1 SLOAD PUSH2 0x9D1 SWAP1 PUSH2 0x1A6E JUMP JUMPDEST DUP1 PUSH1 0x1F ADD PUSH1 0x20 DUP1 SWAP2 DIV MUL PUSH1 0x20 ADD PUSH1 0x40 MLOAD SWAP1 DUP2 ADD PUSH1 0x40 MSTORE DUP1 SWAP3 SWAP2 SWAP1 DUP2 DUP2 MSTORE PUSH1 0x20 ADD DUP3 DUP1 SLOAD PUSH2 0x9FD SWAP1 PUSH2 0x1A6E JUMP JUMPDEST DUP1 ISZERO PUSH2 0xA4A JUMPI DUP1 PUSH1 0x1F LT PUSH2 0xA1F JUMPI PUSH2 0x100 DUP1 DUP4 SLOAD DIV MUL DUP4 MSTORE SWAP2 PUSH1 0x20 ADD SWAP2 PUSH2 0xA4A JUMP JUMPDEST DUP3 ADD SWAP2 SWAP1 PUSH1 0x0 MSTORE PUSH1 0x20 PUSH1 0x0 KECCAK256 SWAP1 JUMPDEST DUP2 SLOAD DUP2 MSTORE SWAP1 PUSH1 0x1 ADD SWAP1 PUSH1 0x20 ADD DUP1 DUP4 GT PUSH2 0xA2D JUMPI DUP3 SWAP1 SUB PUSH1 0x1F AND DUP3 ADD SWAP2 JUMPDEST POP POP POP POP POP DUP2 MSTORE PUSH1 0x20 ADD SWAP1 PUSH1 0x1 ADD SWAP1 PUSH2 0x9B2 JUMP JUMPDEST POP POP POP POP SWAP1 POP SWAP1 JUMP JUMPDEST PUSH1 0x1 PUSH1 0x0 SWAP1 SLOAD SWAP1 PUSH2 0x100 EXP SWAP1 DIV PUSH20 0xFFFFFFFFFFFFFFFFFFFFFFFFFFFFFFFFFFFFFFFF AND PUSH20 0xFFFFFFFFFFFFFFFFFFFFFFFFFFFFFFFFFFFFFFFF AND PUSH4 0xFACD743B CALLER PUSH1 0x40 MLOAD DUP3 PUSH4 0xFFFFFFFF AND PUSH1 0xE0 SHL DUP2 MSTORE PUSH1 0x4 ADD PUSH2 0xAC2 SWAP2 SWAP1 PUSH2 0x1607 JUMP JUMPDEST PUSH1 0x20 PUSH1 0x40 MLOAD DUP1 DUP4 SUB DUP2 DUP7 GAS STATICCALL ISZERO DUP1 ISZERO PUSH2 0xADF JUMPI RETURNDATASIZE PUSH1 0x0 DUP1 RETURNDATACOPY RETURNDATASIZE PUSH1 0x0 REVERT JUMPDEST POP POP POP POP PUSH1 0x40 MLOAD RETURNDATASIZE PUSH1 0x1F NOT PUSH1 0x1F DUP3 ADD AND DUP3 ADD DUP1 PUSH1 0x40 MSTORE POP DUP2 ADD SWAP1 PUSH2 0xB03 SWAP2 SWAP1 PUSH2 0x195A JUMP JUMPDEST PUSH2 0xB42 JUMPI PUSH1 0x40 MLOAD PUSH32 0x8C379A000000000000000000000000000000000000000000000000000000000 DUP2 MSTORE PUSH1 0x4 ADD PUSH2 0xB39 SWAP1 PUSH2 0x1BBA JUMP JUMPDEST PUSH1 0x40 MLOAD DUP1 SWAP2 SUB SWAP1 REVERT JUMPDEST DUP1 PUSH1 0x2 DUP2 SWAP1 SSTORE POP POP JUMP JUMPDEST PUSH1 0x0 DUP1 SLOAD SWAP1 PUSH2 0x100 EXP SWAP1 DIV PUSH20 0xFFFFFFFFFFFFFFFFFFFFFFFFFFFFFFFFFFFFFFFF AND DUP2 JUMP JUMPDEST PUSH1 0x1 PUSH1 0x0 SWAP1 SLOAD SWAP1 PUSH2 0x100 EXP SWAP1 DIV PUSH20 0xFFFFFFFFFFFFFFFFFFFFFFFFFFFFFFFFFFFFFFFF AND PUSH20 0xFFFFFFFFFFFFFFFFFFFFFFFFFFFFFFFFFFFFFFFF AND PUSH4 0xFACD743B CALLER PUSH1 0x40 MLOAD DUP3 PUSH4 0xFFFFFFFF AND PUSH1 0xE0 SHL DUP2 MSTORE PUSH1 0x4 ADD PUSH2 0xBCB SWAP2 SWAP1 PUSH2 0x1607 JUMP JUMPDEST PUSH1 0x20 PUSH1 0x40 MLOAD DUP1 DUP4 SUB DUP2 DUP7 GAS STATICCALL ISZERO DUP1 ISZERO PUSH2 0xBE8 JUMPI RETURNDATASIZE PUSH1 0x0 DUP1 RETURNDATACOPY RETURNDATASIZE PUSH1 0x0 REVERT JUMPDEST POP POP POP POP PUSH1 0x40 MLOAD RETURNDATASIZE PUSH1 0x1F NOT PUSH1 0x1F DUP3 ADD AND DUP3 ADD DUP1 PUSH1 0x40 MSTORE POP DUP2 ADD SWAP1 PUSH2 0xC0C SWAP2 SWAP1 PUSH2 0x195A JUMP JUMPDEST DUP1 PUSH2 0xC62 JUMPI POP PUSH1 0x0 DUP1 SLOAD SWAP1 PUSH2 0x100 EXP SWAP1 DIV PUSH20 0xFFFFFFFFFFFFFFFFFFFFFFFFFFFFFFFFFFFFFFFF AND PUSH20 0xFFFFFFFFFFFFFFFFFFFFFFFFFFFFFFFFFFFFFFFF AND CALLER PUSH20 0xFFFFFFFFFFFFFFFFFFFFFFFFFFFFFFFFFFFFFFFF AND EQ JUMPDEST PUSH2 0xCA1 JUMPI PUSH1 0x40 MLOAD PUSH32 0x8C379A000000000000000000000000000000000000000000000000000000000 DUP2 MSTORE PUSH1 0x4 ADD PUSH2 0xC98 SWAP1 PUSH2 0x1C72 JUMP JUMPDEST PUSH1 0x40 MLOAD DUP1 SWAP2 SUB SWAP1 REVERT JUMPDEST PUSH1 0x0 DUP4 LT ISZERO DUP1 ISZERO PUSH2 0xCB2 JUMPI POP PUSH1 0x5 DUP4 LT JUMPDEST PUSH2 0xCF1 JUMPI PUSH1 0x40 MLOAD PUSH32 0x8C379A000000000000000000000000000000000000000000000000000000000 DUP2 MSTORE PUSH1 0x4 ADD PUSH2 0xCE8 SWAP1 PUSH2 0x1D04 JUMP JUMPDEST PUSH1 0x40 MLOAD DUP1 SWAP2 SUB SWAP1 REVERT JUMPDEST PUSH1 0x40 MLOAD DUP1 PUSH1 0x40 ADD PUSH1 0x40 MSTORE DUP1 DUP4 DUP2 MSTORE PUSH1 0x20 ADD DUP3 DUP2 MSTORE POP PUSH1 0x3 PUSH1 0x0 DUP6 DUP2 MSTORE PUSH1 0x20 ADD SWAP1 DUP2 MSTORE PUSH1 0x20 ADD PUSH1 0x0 KECCAK256 PUSH1 0x0 DUP3 ADD MLOAD DUP2 PUSH1 0x0 ADD SWAP1 DUP2 PUSH2 0xD2E SWAP2 SWAP1 PUSH2 0x1ED0 JUMP JUMPDEST POP PUSH1 0x20 DUP3 ADD MLOAD DUP2 PUSH1 0x1 ADD SSTORE SWAP1 POP POP POP POP POP JUMP JUMPDEST PUSH1 0x0 PUSH1 0x1 PUSH1 0x0 SWAP1 SLOAD SWAP1 PUSH2 0x100 EXP SWAP1 DIV PUSH20 0xFFFFFFFFFFFFFFFFFFFFFFFFFFFFFFFFFFFFFFFF AND PUSH20 0xFFFFFFFFFFFFFFFFFFFFFFFFFFFFFFFFFFFFFFFF AND PUSH4 0xFACD743B CALLER PUSH1 0x40 MLOAD DUP3 PUSH4 0xFFFFFFFF AND PUSH1 0xE0 SHL DUP2 MSTORE PUSH1 0x4 ADD PUSH2 0xD9E SWAP2 SWAP1 PUSH2 0x1607 JUMP JUMPDEST PUSH1 0x20 PUSH1 0x40 MLOAD DUP1 DUP4 SUB DUP2 DUP7 GAS STATICCALL ISZERO DUP1 ISZERO PUSH2 0xDBB JUMPI RETURNDATASIZE PUSH1 0x0 DUP1 RETURNDATACOPY RETURNDATASIZE PUSH1 0x0 REVERT JUMPDEST POP POP POP POP PUSH1 0x40 MLOAD RETURNDATASIZE PUSH1 0x1F NOT PUSH1 0x1F DUP3 ADD AND DUP3 ADD DUP1 PUSH1 0x40 MSTORE POP DUP2 ADD SWAP1 PUSH2 0xDDF SWAP2 SWAP1 PUSH2 0x195A JUMP JUMPDEST DUP1 PUSH2 0xE35 JUMPI POP PUSH1 0x0 DUP1 SLOAD SWAP1 PUSH2 0x100 EXP SWAP1 DIV PUSH20 0xFFFFFFFFFFFFFFFFFFFFFFFFFFFFFFFFFFFFFFFF AND PUSH20 0xFFFFFFFFFFFFFFFFFFFFFFFFFFFFFFFFFFFFFFFF AND CALLER PUSH20 0xFFFFFFFFFFFFFFFFFFFFFFFFFFFFFFFFFFFFFFFF AND EQ JUMPDEST PUSH2 0xE74 JUMPI PUSH1 0x40 MLOAD PUSH32 0x8C379A000000000000000000000000000000000000000000000000000000000 DUP2 MSTORE PUSH1 0x4 ADD PUSH2 0xE6B SWAP1 PUSH2 0x203A JUMP JUMPDEST PUSH1 0x40 MLOAD DUP1 SWAP2 SUB SWAP1 REVERT JUMPDEST PUSH1 0x3 PUSH1 0x0 DUP4 DUP2 MSTORE PUSH1 0x20 ADD SWAP1 DUP2 MSTORE PUSH1 0x20 ADD PUSH1 0x0 KECCAK256 PUSH1 0x1 ADD SLOAD SWAP1 POP SWAP2 SWAP1 POP JUMP JUMPDEST PUSH1 0x0 PUSH1 0x5 DUP1 SLOAD SWAP1 POP TIMESTAMP PUSH1 0x1 NUMBER PUSH2 0xEA8 SWAP2 SWAP1 PUSH2 0x2089 JUMP JUMPDEST BLOCKHASH PUSH1 0x40 MLOAD PUSH1 0x20 ADD PUSH2 0xEBA SWAP3 SWAP2 SWAP1 PUSH2 0x2109 JUMP JUMPDEST PUSH1 0x40 MLOAD PUSH1 0x20 DUP2 DUP4 SUB SUB DUP2 MSTORE SWAP1 PUSH1 0x40 MSTORE DUP1 MLOAD SWAP1 PUSH1 0x20 ADD KECCAK256 PUSH1 0x0 SHR PUSH2 0xEDD SWAP2 SWAP1 PUSH2 0x2164 JUMP JUMPDEST SWAP1 POP PUSH1 0x0 PUSH1 0x5 DUP3 DUP2 SLOAD DUP2 LT PUSH2 0xEF5 JUMPI PUSH2 0xEF4 PUSH2 0x2195 JUMP JUMPDEST JUMPDEST SWAP1 PUSH1 0x0 MSTORE PUSH1 0x20 PUSH1 0x0 KECCAK256 ADD DUP1 SLOAD PUSH2 0xF0A SWAP1 PUSH2 0x1A6E JUMP JUMPDEST DUP1 PUSH1 0x1F ADD PUSH1 0x20 DUP1 SWAP2 DIV MUL PUSH1 0x20 ADD PUSH1 0x40 MLOAD SWAP1 DUP2 ADD PUSH1 0x40 MSTORE DUP1 SWAP3 SWAP2 SWAP1 DUP2 DUP2 MSTORE PUSH1 0x20 ADD DUP3 DUP1 SLOAD PUSH2 0xF36 SWAP1 PUSH2 0x1A6E JUMP JUMPDEST DUP1 ISZERO PUSH2 0xF83 JUMPI DUP1 PUSH1 0x1F LT PUSH2 0xF58 JUMPI PUSH2 0x100 DUP1 DUP4 SLOAD DIV MUL DUP4 MSTORE SWAP2 PUSH1 0x20 ADD SWAP2 PUSH2 0xF83 JUMP JUMPDEST DUP3 ADD SWAP2 SWAP1 PUSH1 0x0 MSTORE PUSH1 0x20 PUSH1 0x0 KECCAK256 SWAP1 JUMPDEST DUP2 SLOAD DUP2 MSTORE SWAP1 PUSH1 0x1 ADD SWAP1 PUSH1 0x20 ADD DUP1 DUP4 GT PUSH2 0xF66 JUMPI DUP3 SWAP1 SUB PUSH1 0x1F AND DUP3 ADD SWAP2 JUMPDEST POP POP POP POP POP SWAP1 POP PUSH1 0x0 PUSH1 0x6 DUP3 PUSH1 0x40 MLOAD PUSH2 0xF9C SWAP2 SWAP1 PUSH2 0x1ADB JUMP JUMPDEST SWAP1 DUP2 MSTORE PUSH1 0x20 ADD PUSH1 0x40 MLOAD DUP1 SWAP2 SUB SWAP1 KECCAK256 PUSH1 0x0 SWAP1 SLOAD SWAP1 PUSH2 0x100 EXP SWAP1 DIV PUSH1 0xFF AND SWAP1 POP CALLER PUSH20 0xFFFFFFFFFFFFFFFFFFFFFFFFFFFFFFFFFFFFFFFF AND PUSH32 0xB953EBB896F792106689250783CC01F61EA32EDFF55593B494AB972CB3EEACCA DUP4 DUP4 PUSH1 0x40 MLOAD PUSH2 0x1002 SWAP3 SWAP2 SWAP1 PUSH2 0x1AF2 JUMP JUMPDEST PUSH1 0x40 MLOAD DUP1 SWAP2 SUB SWAP1 LOG2 POP POP POP JUMP JUMPDEST PUSH1 0x7 PUSH1 0x20 MSTORE DUP2 PUSH1 0x0 MSTORE PUSH1 0x40 PUSH1 0x0 KECCAK256 DUP2 DUP1 MLOAD PUSH1 0x20 DUP2 ADD DUP3 ADD DUP1 MLOAD DUP5 DUP3 MSTORE PUSH1 0x20 DUP4 ADD PUSH1 0x20 DUP6 ADD KECCAK256 DUP2 DUP4 MSTORE DUP1 SWAP6 POP POP POP POP POP POP PUSH1 0x0 SWAP2 POP SWAP2 POP SWAP1 SLOAD SWAP1 PUSH2 0x100 EXP SWAP1 DIV PUSH1 0xFF AND DUP2 JUMP JUMPDEST PUSH1 0x1 PUSH1 0x0 SWAP1 SLOAD SWAP1 PUSH2 0x100 EXP SWAP1 DIV PUSH20 0xFFFFFFFFFFFFFFFFFFFFFFFFFFFFFFFFFFFFFFFF AND DUP2 JUMP JUMPDEST PUSH1 0x0 DUP1 PUSH20 0xFFFFFFFFFFFFFFFFFFFFFFFFFFFFFFFFFFFFFFFF AND PUSH1 0x1 PUSH1 0x0 SWAP1 SLOAD SWAP1 PUSH2 0x100 EXP SWAP1 DIV PUSH20 0xFFFFFFFFFFFFFFFFFFFFFFFFFFFFFFFFFFFFFFFF AND PUSH20 0xFFFFFFFFFFFFFFFFFFFFFFFFFFFFFFFFFFFFFFFF AND SUB PUSH2 0x110C JUMPI PUSH1 0x40 MLOAD PUSH32 0x8C379A000000000000000000000000000000000000000000000000000000000 DUP2 MSTORE PUSH1 0x4 ADD PUSH2 0x1103 SWAP1 PUSH2 0x2210 JUMP JUMPDEST PUSH1 0x40 MLOAD DUP1 SWAP2 SUB SWAP1 REVERT JUMPDEST PUSH1 0x1 PUSH1 0x0 SWAP1 SLOAD SWAP1 PUSH2 0x100 EXP SWAP1 DIV PUSH20 0xFFFFFFFFFFFFFFFFFFFFFFFFFFFFFFFFFFFFFFFF AND PUSH20 0xFFFFFFFFFFFFFFFFFFFFFFFFFFFFFFFFFFFFFFFF AND PUSH4 0xFACD743B DUP4 PUSH1 0x40 MLOAD DUP3 PUSH4 0xFFFFFFFF AND PUSH1 0xE0 SHL DUP2 MSTORE PUSH1 0x4 ADD PUSH2 0x1167 SWAP2 SWAP1 PUSH2 0x1607 JUMP JUMPDEST PUSH1 0x20 PUSH1 0x40 MLOAD DUP1 DUP4 SUB DUP2 DUP7 GAS STATICCALL ISZERO DUP1 ISZERO PUSH2 0x1184 JUMPI RETURNDATASIZE PUSH1 0x0 DUP1 RETURNDATACOPY RETURNDATASIZE PUSH1 0x0 REVERT JUMPDEST POP POP POP POP PUSH1 0x40 MLOAD RETURNDATASIZE PUSH1 0x1F NOT PUSH1 0x1F DUP3 ADD AND DUP3 ADD DUP1 PUSH1 0x40 MSTORE POP DUP2 ADD SWAP1 PUSH2 0x11A8 SWAP2 SWAP1 PUSH2 0x195A JUMP JUMPDEST ISZERO PUSH2 0x11B6 JUMPI PUSH1 0x1 SWAP1 POP PUSH2 0x11BB JUMP JUMPDEST PUSH1 0x0 SWAP1 POP JUMPDEST SWAP2 SWAP1 POP JUMP JUMPDEST PUSH1 0x0 PUSH1 0x40 MLOAD SWAP1 POP SWAP1 JUMP JUMPDEST PUSH1 0x0 DUP1 REVERT JUMPDEST PUSH1 0x0 DUP1 REVERT JUMPDEST PUSH1 0x0 DUP2 SWAP1 POP SWAP2 SWAP1 POP JUMP JUMPDEST PUSH2 0x11E7 DUP2 PUSH2 0x11D4 JUMP JUMPDEST DUP2 EQ PUSH2 0x11F2 JUMPI PUSH1 0x0 DUP1 REVERT JUMPDEST POP JUMP JUMPDEST PUSH1 0x0 DUP2 CALLDATALOAD SWAP1 POP PUSH2 0x1204 DUP2 PUSH2 0x11DE JUMP JUMPDEST SWAP3 SWAP2 POP POP JUMP JUMPDEST PUSH1 0x0 PUSH1 0x20 DUP3 DUP5 SUB SLT ISZERO PUSH2 0x1220 JUMPI PUSH2 0x121F PUSH2 0x11CA JUMP JUMPDEST JUMPDEST PUSH1 0x0 PUSH2 0x122E DUP5 DUP3 DUP6 ADD PUSH2 0x11F5 JUMP JUMPDEST SWAP2 POP POP SWAP3 SWAP2 POP POP JUMP JUMPDEST PUSH1 0x0 DUP2 MLOAD SWAP1 POP SWAP2 SWAP1 POP JUMP JUMPDEST PUSH1 0x0 DUP3 DUP3 MSTORE PUSH1 0x20 DUP3 ADD SWAP1 POP SWAP3 SWAP2 POP POP JUMP JUMPDEST PUSH1 0x0 JUMPDEST DUP4 DUP2 LT ISZERO PUSH2 0x1271 JUMPI DUP1 DUP3 ADD MLOAD DUP2 DUP5 ADD MSTORE PUSH1 0x20 DUP2 ADD SWAP1 POP PUSH2 0x1256 JUMP JUMPDEST PUSH1 0x0 DUP5 DUP5 ADD MSTORE POP POP POP POP JUMP JUMPDEST PUSH1 0x0 PUSH1 0x1F NOT PUSH1 0x1F DUP4 ADD AND SWAP1 POP SWAP2 SWAP1 POP JUMP JUMPDEST PUSH1 0x0 PUSH2 0x1299 DUP3 PUSH2 0x1237 JUMP JUMPDEST PUSH2 0x12A3 DUP2 DUP6 PUSH2 0x1242 JUMP JUMPDEST SWAP4 POP PUSH2 0x12B3 DUP2 DUP6 PUSH1 0x20 DUP7 ADD PUSH2 0x1253 JUMP JUMPDEST PUSH2 0x12BC DUP2 PUSH2 0x127D JUMP JUMPDEST DUP5 ADD SWAP2 POP POP SWAP3 SWAP2 POP POP JUMP JUMPDEST PUSH1 0x0 PUSH1 0x20 DUP3 ADD SWAP1 POP DUP2 DUP2 SUB PUSH1 0x0 DUP4 ADD MSTORE PUSH2 0x12E1 DUP2 DUP5 PUSH2 0x128E JUMP JUMPDEST SWAP1 POP SWAP3 SWAP2 POP POP JUMP JUMPDEST PUSH1 0x0 DUP1 REVERT JUMPDEST PUSH1 0x0 DUP1 REVERT JUMPDEST PUSH32 0x4E487B7100000000000000000000000000000000000000000000000000000000 PUSH1 0x0 MSTORE PUSH1 0x41 PUSH1 0x4 MSTORE PUSH1 0x24 PUSH1 0x0 REVERT JUMPDEST PUSH2 0x132B DUP3 PUSH2 0x127D JUMP JUMPDEST DUP2 ADD DUP2 DUP2 LT PUSH8 0xFFFFFFFFFFFFFFFF DUP3 GT OR ISZERO PUSH2 0x134A JUMPI PUSH2 0x1349 PUSH2 0x12F3 JUMP JUMPDEST JUMPDEST DUP1 PUSH1 0x40 MSTORE POP POP POP JUMP JUMPDEST PUSH1 0x0 PUSH2 0x135D PUSH2 0x11C0 JUMP JUMPDEST SWAP1 POP PUSH2 0x1369 DUP3 DUP3 PUSH2 0x1322 JUMP JUMPDEST SWAP2 SWAP1 POP JUMP JUMPDEST PUSH1 0x0 PUSH8 0xFFFFFFFFFFFFFFFF DUP3 GT ISZERO PUSH2 0x1389 JUMPI PUSH2 0x1388 PUSH2 0x12F3 JUMP JUMPDEST JUMPDEST PUSH2 0x1392 DUP3 PUSH2 0x127D JUMP JUMPDEST SWAP1 POP PUSH1 0x20 DUP2 ADD SWAP1 POP SWAP2 SWAP1 POP JUMP JUMPDEST DUP3 DUP2 DUP4 CALLDATACOPY PUSH1 0x0 DUP4 DUP4 ADD MSTORE POP POP POP JUMP JUMPDEST PUSH1 0x0 PUSH2 0x13C1 PUSH2 0x13BC DUP5 PUSH2 0x136E JUMP JUMPDEST PUSH2 0x1353 JUMP JUMPDEST SWAP1 POP DUP3 DUP2 MSTORE PUSH1 0x20 DUP2 ADD DUP5 DUP5 DUP5 ADD GT ISZERO PUSH2 0x13DD JUMPI PUSH2 0x13DC PUSH2 0x12EE JUMP JUMPDEST JUMPDEST PUSH2 0x13E8 DUP5 DUP3 DUP6 PUSH2 0x139F JUMP JUMPDEST POP SWAP4 SWAP3 POP POP POP JUMP JUMPDEST PUSH1 0x0 DUP3 PUSH1 0x1F DUP4 ADD SLT PUSH2 0x1405 JUMPI PUSH2 0x1404 PUSH2 0x12E9 JUMP JUMPDEST JUMPDEST DUP2 CALLDATALOAD PUSH2 0x1415 DUP5 DUP3 PUSH1 0x20 DUP7 ADD PUSH2 0x13AE JUMP JUMPDEST SWAP2 POP POP SWAP3 SWAP2 POP POP JUMP JUMPDEST PUSH1 0x0 PUSH1 0x20 DUP3 DUP5 SUB SLT ISZERO PUSH2 0x1434 JUMPI PUSH2 0x1433 PUSH2 0x11CA JUMP JUMPDEST JUMPDEST PUSH1 0x0 DUP3 ADD CALLDATALOAD PUSH8 0xFFFFFFFFFFFFFFFF DUP2 GT ISZERO PUSH2 0x1452 JUMPI PUSH2 0x1451 PUSH2 0x11CF JUMP JUMPDEST JUMPDEST PUSH2 0x145E DUP5 DUP3 DUP6 ADD PUSH2 0x13F0 JUMP JUMPDEST SWAP2 POP POP SWAP3 SWAP2 POP POP JUMP JUMPDEST PUSH1 0x0 DUP2 ISZERO ISZERO SWAP1 POP SWAP2 SWAP1 POP JUMP JUMPDEST PUSH2 0x147C DUP2 PUSH2 0x1467 JUMP JUMPDEST DUP3 MSTORE POP POP JUMP JUMPDEST PUSH1 0x0 PUSH1 0x20 DUP3 ADD SWAP1 POP PUSH2 0x1497 PUSH1 0x0 DUP4 ADD DUP5 PUSH2 0x1473 JUMP JUMPDEST SWAP3 SWAP2 POP POP JUMP JUMPDEST PUSH1 0x0 DUP2 MLOAD SWAP1 POP SWAP2 SWAP1 POP JUMP JUMPDEST PUSH1 0x0 DUP3 DUP3 MSTORE PUSH1 0x20 DUP3 ADD SWAP1 POP SWAP3 SWAP2 POP POP JUMP JUMPDEST PUSH1 0x0 PUSH2 0x14C4 DUP3 PUSH2 0x149D JUMP JUMPDEST PUSH2 0x14CE DUP2 DUP6 PUSH2 0x14A8 JUMP JUMPDEST SWAP4 POP PUSH2 0x14DE DUP2 DUP6 PUSH1 0x20 DUP7 ADD PUSH2 0x1253 JUMP JUMPDEST PUSH2 0x14E7 DUP2 PUSH2 0x127D JUMP JUMPDEST DUP5 ADD SWAP2 POP POP SWAP3 SWAP2 POP POP JUMP JUMPDEST PUSH1 0x0 PUSH1 0x20 DUP3 ADD SWAP1 POP DUP2 DUP2 SUB PUSH1 0x0 DUP4 ADD MSTORE PUSH2 0x150C DUP2 DUP5 PUSH2 0x14B9 JUMP JUMPDEST SWAP1 POP SWAP3 SWAP2 POP POP JUMP JUMPDEST PUSH2 0x151D DUP2 PUSH2 0x11D4 JUMP JUMPDEST DUP3 MSTORE POP POP JUMP JUMPDEST PUSH1 0x0 PUSH1 0x20 DUP3 ADD SWAP1 POP PUSH2 0x1538 PUSH1 0x0 DUP4 ADD DUP5 PUSH2 0x1514 JUMP JUMPDEST SWAP3 SWAP2 POP POP JUMP JUMPDEST PUSH2 0x1547 DUP2 PUSH2 0x1467 JUMP JUMPDEST DUP2 EQ PUSH2 0x1552 JUMPI PUSH1 0x0 DUP1 REVERT JUMPDEST POP JUMP JUMPDEST PUSH1 0x0 DUP2 CALLDATALOAD SWAP1 POP PUSH2 0x1564 DUP2 PUSH2 0x153E JUMP JUMPDEST SWAP3 SWAP2 POP POP JUMP JUMPDEST PUSH1 0x0 DUP1 PUSH1 0x40 DUP4 DUP6 SUB SLT ISZERO PUSH2 0x1581 JUMPI PUSH2 0x1580 PUSH2 0x11CA JUMP JUMPDEST JUMPDEST PUSH1 0x0 DUP4 ADD CALLDATALOAD PUSH8 0xFFFFFFFFFFFFFFFF DUP2 GT ISZERO PUSH2 0x159F JUMPI PUSH2 0x159E PUSH2 0x11CF JUMP JUMPDEST JUMPDEST PUSH2 0x15AB DUP6 DUP3 DUP7 ADD PUSH2 0x13F0 JUMP JUMPDEST SWAP3 POP POP PUSH1 0x20 PUSH2 0x15BC DUP6 DUP3 DUP7 ADD PUSH2 0x1555 JUMP JUMPDEST SWAP2 POP POP SWAP3 POP SWAP3 SWAP1 POP JUMP JUMPDEST PUSH1 0x0 PUSH20 0xFFFFFFFFFFFFFFFFFFFFFFFFFFFFFFFFFFFFFFFF DUP3 AND SWAP1 POP SWAP2 SWAP1 POP JUMP JUMPDEST PUSH1 0x0 PUSH2 0x15F1 DUP3 PUSH2 0x15C6 JUMP JUMPDEST SWAP1 POP SWAP2 SWAP1 POP JUMP JUMPDEST PUSH2 0x1601 DUP2 PUSH2 0x15E6 JUMP JUMPDEST DUP3 MSTORE POP POP JUMP JUMPDEST PUSH1 0x0 PUSH1 0x20 DUP3 ADD SWAP1 POP PUSH2 0x161C PUSH1 0x0 DUP4 ADD DUP5 PUSH2 0x15F8 JUMP JUMPDEST SWAP3 SWAP2 POP POP JUMP JUMPDEST PUSH1 0x0 PUSH1 0x40 DUP3 ADD SWAP1 POP DUP2 DUP2 SUB PUSH1 0x0 DUP4 ADD MSTORE PUSH2 0x163C DUP2 DUP6 PUSH2 0x128E JUMP JUMPDEST SWAP1 POP PUSH2 0x164B PUSH1 0x20 DUP4 ADD DUP5 PUSH2 0x1514 JUMP JUMPDEST SWAP4 SWAP3 POP POP POP JUMP JUMPDEST PUSH1 0x0 DUP2 MLOAD SWAP1 POP SWAP2 SWAP1 POP JUMP JUMPDEST PUSH1 0x0 DUP3 DUP3 MSTORE PUSH1 0x20 DUP3 ADD SWAP1 POP SWAP3 SWAP2 POP POP JUMP JUMPDEST PUSH1 0x0 DUP2 SWAP1 POP PUSH1 0x20 DUP3 ADD SWAP1 POP SWAP2 SWAP1 POP JUMP JUMPDEST PUSH1 0x0 DUP3 DUP3 MSTORE PUSH1 0x20 DUP3 ADD SWAP1 POP SWAP3 SWAP2 POP POP JUMP JUMPDEST PUSH1 0x0 PUSH2 0x169A DUP3 PUSH2 0x149D JUMP JUMPDEST PUSH2 0x16A4 DUP2 DUP6 PUSH2 0x167E JUMP JUMPDEST SWAP4 POP PUSH2 0x16B4 DUP2 DUP6 PUSH1 0x20 DUP7 ADD PUSH2 0x1253 JUMP JUMPDEST PUSH2 0x16BD DUP2 PUSH2 0x127D JUMP JUMPDEST DUP5 ADD SWAP2 POP POP SWAP3 SWAP2 POP POP JUMP JUMPDEST PUSH1 0x0 PUSH2 0x16D4 DUP4 DUP4 PUSH2 0x168F JUMP JUMPDEST SWAP1 POP SWAP3 SWAP2 POP POP JUMP JUMPDEST PUSH1 0x0 PUSH1 0x20 DUP3 ADD SWAP1 POP SWAP2 SWAP1 POP JUMP JUMPDEST PUSH1 0x0 PUSH2 0x16F4 DUP3 PUSH2 0x1652 JUMP JUMPDEST PUSH2 0x16FE DUP2 DUP6 PUSH2 0x165D JUMP JUMPDEST SWAP4 POP DUP4 PUSH1 0x20 DUP3 MUL DUP6 ADD PUSH2 0x1710 DUP6 PUSH2 0x166E JUMP JUMPDEST DUP1 PUSH1 0x0 JUMPDEST DUP6 DUP2 LT ISZERO PUSH2 0x174C JUMPI DUP5 DUP5 SUB DUP10 MSTORE DUP2 MLOAD PUSH2 0x172D DUP6 DUP3 PUSH2 0x16C8 JUMP JUMPDEST SWAP5 POP PUSH2 0x1738 DUP4 PUSH2 0x16DC JUMP JUMPDEST SWAP3 POP PUSH1 0x20 DUP11 ADD SWAP10 POP POP PUSH1 0x1 DUP2 ADD SWAP1 POP PUSH2 0x1714 JUMP JUMPDEST POP DUP3 SWAP8 POP DUP8 SWAP6 POP POP POP POP POP POP SWAP3 SWAP2 POP POP JUMP JUMPDEST PUSH1 0x0 PUSH1 0x20 DUP3 ADD SWAP1 POP DUP2 DUP2 SUB PUSH1 0x0 DUP4 ADD MSTORE PUSH2 0x1778 DUP2 DUP5 PUSH2 0x16E9 JUMP JUMPDEST SWAP1 POP SWAP3 SWAP2 POP POP JUMP JUMPDEST PUSH1 0x0 PUSH8 0xFFFFFFFFFFFFFFFF DUP3 GT ISZERO PUSH2 0x179B JUMPI PUSH2 0x179A PUSH2 0x12F3 JUMP JUMPDEST JUMPDEST PUSH2 0x17A4 DUP3 PUSH2 0x127D JUMP JUMPDEST SWAP1 POP PUSH1 0x20 DUP2 ADD SWAP1 POP SWAP2 SWAP1 POP JUMP JUMPDEST PUSH1 0x0 PUSH2 0x17C4 PUSH2 0x17BF DUP5 PUSH2 0x1780 JUMP JUMPDEST PUSH2 0x1353 JUMP JUMPDEST SWAP1 POP DUP3 DUP2 MSTORE PUSH1 0x20 DUP2 ADD DUP5 DUP5 DUP5 ADD GT ISZERO PUSH2 0x17E0 JUMPI PUSH2 0x17DF PUSH2 0x12EE JUMP JUMPDEST JUMPDEST PUSH2 0x17EB DUP5 DUP3 DUP6 PUSH2 0x139F JUMP JUMPDEST POP SWAP4 SWAP3 POP POP POP JUMP JUMPDEST PUSH1 0x0 DUP3 PUSH1 0x1F DUP4 ADD SLT PUSH2 0x1808 JUMPI PUSH2 0x1807 PUSH2 0x12E9 JUMP JUMPDEST JUMPDEST DUP2 CALLDATALOAD PUSH2 0x1818 DUP5 DUP3 PUSH1 0x20 DUP7 ADD PUSH2 0x17B1 JUMP JUMPDEST SWAP2 POP POP SWAP3 SWAP2 POP POP JUMP JUMPDEST PUSH1 0x0 DUP1 PUSH1 0x0 PUSH1 0x60 DUP5 DUP7 SUB SLT ISZERO PUSH2 0x183A JUMPI PUSH2 0x1839 PUSH2 0x11CA JUMP JUMPDEST JUMPDEST PUSH1 0x0 PUSH2 0x1848 DUP7 DUP3 DUP8 ADD PUSH2 0x11F5 JUMP JUMPDEST SWAP4 POP POP PUSH1 0x20 DUP5 ADD CALLDATALOAD PUSH8 0xFFFFFFFFFFFFFFFF DUP2 GT ISZERO PUSH2 0x1869 JUMPI PUSH2 0x1868 PUSH2 0x11CF JUMP JUMPDEST JUMPDEST PUSH2 0x1875 DUP7 DUP3 DUP8 ADD PUSH2 0x17F3 JUMP JUMPDEST SWAP3 POP POP PUSH1 0x40 PUSH2 0x1886 DUP7 DUP3 DUP8 ADD PUSH2 0x11F5 JUMP JUMPDEST SWAP2 POP POP SWAP3 POP SWAP3 POP SWAP3 JUMP JUMPDEST PUSH2 0x1899 DUP2 PUSH2 0x15E6 JUMP JUMPDEST DUP2 EQ PUSH2 0x18A4 JUMPI PUSH1 0x0 DUP1 REVERT JUMPDEST POP JUMP JUMPDEST PUSH1 0x0 DUP2 CALLDATALOAD SWAP1 POP PUSH2 0x18B6 DUP2 PUSH2 0x1890 JUMP JUMPDEST SWAP3 SWAP2 POP POP JUMP JUMPDEST PUSH1 0x0 DUP1 PUSH1 0x40 DUP4 DUP6 SUB SLT ISZERO PUSH2 0x18D3 JUMPI PUSH2 0x18D2 PUSH2 0x11CA JUMP JUMPDEST JUMPDEST PUSH1 0x0 PUSH2 0x18E1 DUP6 DUP3 DUP7 ADD PUSH2 0x18A7 JUMP JUMPDEST SWAP3 POP POP PUSH1 0x20 DUP4 ADD CALLDATALOAD PUSH8 0xFFFFFFFFFFFFFFFF DUP2 GT ISZERO PUSH2 0x1902 JUMPI PUSH2 0x1901 PUSH2 0x11CF JUMP JUMPDEST JUMPDEST PUSH2 0x190E DUP6 DUP3 DUP7 ADD PUSH2 0x13F0 JUMP JUMPDEST SWAP2 POP POP SWAP3 POP SWAP3 SWAP1 POP JUMP JUMPDEST PUSH1 0x0 PUSH1 0x20 DUP3 DUP5 SUB SLT ISZERO PUSH2 0x192E JUMPI PUSH2 0x192D PUSH2 0x11CA JUMP JUMPDEST JUMPDEST PUSH1 0x0 PUSH2 0x193C DUP5 DUP3 DUP6 ADD PUSH2 0x18A7 JUMP JUMPDEST SWAP2 POP POP SWAP3 SWAP2 POP POP JUMP JUMPDEST PUSH1 0x0 DUP2 MLOAD SWAP1 POP PUSH2 0x1954 DUP2 PUSH2 0x153E JUMP JUMPDEST SWAP3 SWAP2 POP POP JUMP JUMPDEST PUSH1 0x0 PUSH1 0x20 DUP3 DUP5 SUB SLT ISZERO PUSH2 0x1970 JUMPI PUSH2 0x196F PUSH2 0x11CA JUMP JUMPDEST JUMPDEST PUSH1 0x0 PUSH2 0x197E DUP5 DUP3 DUP6 ADD PUSH2 0x1945 JUMP JUMPDEST SWAP2 POP POP SWAP3 SWAP2 POP POP JUMP JUMPDEST PUSH32 0x4261736541737369676E6D656E743A206765745369676E61747572653A204F6E PUSH1 0x0 DUP3 ADD MSTORE PUSH32 0x6C792076616C696461746F72206F72206F776E65722063616E2063616C6C2074 PUSH1 0x20 DUP3 ADD MSTORE PUSH32 0x6869732066756E6374696F6E0000000000000000000000000000000000000000 PUSH1 0x40 DUP3 ADD MSTORE POP JUMP JUMPDEST PUSH1 0x0 PUSH2 0x1A09 PUSH1 0x4C DUP4 PUSH2 0x14A8 JUMP JUMPDEST SWAP2 POP PUSH2 0x1A14 DUP3 PUSH2 0x1987 JUMP JUMPDEST PUSH1 0x60 DUP3 ADD SWAP1 POP SWAP2 SWAP1 POP JUMP JUMPDEST PUSH1 0x0 PUSH1 0x20 DUP3 ADD SWAP1 POP DUP2 DUP2 SUB PUSH1 0x0 DUP4 ADD MSTORE PUSH2 0x1A38 DUP2 PUSH2 0x19FC JUMP JUMPDEST SWAP1 POP SWAP2 SWAP1 POP JUMP JUMPDEST PUSH32 0x4E487B7100000000000000000000000000000000000000000000000000000000 PUSH1 0x0 MSTORE PUSH1 0x22 PUSH1 0x4 MSTORE PUSH1 0x24 PUSH1 0x0 REVERT JUMPDEST PUSH1 0x0 PUSH1 0x2 DUP3 DIV SWAP1 POP PUSH1 0x1 DUP3 AND DUP1 PUSH2 0x1A86 JUMPI PUSH1 0x7F DUP3 AND SWAP2 POP JUMPDEST PUSH1 0x20 DUP3 LT DUP2 SUB PUSH2 0x1A99 JUMPI PUSH2 0x1A98 PUSH2 0x1A3F JUMP JUMPDEST JUMPDEST POP SWAP2 SWAP1 POP JUMP JUMPDEST PUSH1 0x0 DUP2 SWAP1 POP SWAP3 SWAP2 POP POP JUMP JUMPDEST PUSH1 0x0 PUSH2 0x1AB5 DUP3 PUSH2 0x149D JUMP JUMPDEST PUSH2 0x1ABF DUP2 DUP6 PUSH2 0x1A9F JUMP JUMPDEST SWAP4 POP PUSH2 0x1ACF DUP2 DUP6 PUSH1 0x20 DUP7 ADD PUSH2 0x1253 JUMP JUMPDEST DUP1 DUP5 ADD SWAP2 POP POP SWAP3 SWAP2 POP POP JUMP JUMPDEST PUSH1 0x0 PUSH2 0x1AE7 DUP3 DUP5 PUSH2 0x1AAA JUMP JUMPDEST SWAP2 POP DUP2 SWAP1 POP SWAP3 SWAP2 POP POP JUMP JUMPDEST PUSH1 0x0 PUSH1 0x40 DUP3 ADD SWAP1 POP DUP2 DUP2 SUB PUSH1 0x0 DUP4 ADD MSTORE PUSH2 0x1B0C DUP2 DUP6 PUSH2 0x14B9 JUMP JUMPDEST SWAP1 POP PUSH2 0x1B1B PUSH1 0x20 DUP4 ADD DUP5 PUSH2 0x1473 JUMP JUMPDEST SWAP4 SWAP3 POP POP POP JUMP JUMPDEST PUSH32 0x4261736541737369676E6D656E743A20736574426C6F636B4E756D6265723A20 PUSH1 0x0 DUP3 ADD MSTORE PUSH32 0x4F6E6C792076616C696461746F722063616E2063616C6C20746869732066756E PUSH1 0x20 DUP3 ADD MSTORE PUSH32 0x6374696F6E000000000000000000000000000000000000000000000000000000 PUSH1 0x40 DUP3 ADD MSTORE POP JUMP JUMPDEST PUSH1 0x0 PUSH2 0x1BA4 PUSH1 0x45 DUP4 PUSH2 0x14A8 JUMP JUMPDEST SWAP2 POP PUSH2 0x1BAF DUP3 PUSH2 0x1B22 JUMP JUMPDEST PUSH1 0x60 DUP3 ADD SWAP1 POP SWAP2 SWAP1 POP JUMP JUMPDEST PUSH1 0x0 PUSH1 0x20 DUP3 ADD SWAP1 POP DUP2 DUP2 SUB PUSH1 0x0 DUP4 ADD MSTORE PUSH2 0x1BD3 DUP2 PUSH2 0x1B97 JUMP JUMPDEST SWAP1 POP SWAP2 SWAP1 POP JUMP JUMPDEST PUSH32 0x4261736541737369676E6D656E743A206164645369676E61747572653A204F6E PUSH1 0x0 DUP3 ADD MSTORE PUSH32 0x6C792076616C696461746F72206F72206F776E65722063616E2063616C6C2074 PUSH1 0x20 DUP3 ADD MSTORE PUSH32 0x6869732066756E6374696F6E0000000000000000000000000000000000000000 PUSH1 0x40 DUP3 ADD MSTORE POP JUMP JUMPDEST PUSH1 0x0 PUSH2 0x1C5C PUSH1 0x4C DUP4 PUSH2 0x14A8 JUMP JUMPDEST SWAP2 POP PUSH2 0x1C67 DUP3 PUSH2 0x1BDA JUMP JUMPDEST PUSH1 0x60 DUP3 ADD SWAP1 POP SWAP2 SWAP1 POP JUMP JUMPDEST PUSH1 0x0 PUSH1 0x20 DUP3 ADD SWAP1 POP DUP2 DUP2 SUB PUSH1 0x0 DUP4 ADD MSTORE PUSH2 0x1C8B DUP2 PUSH2 0x1C4F JUMP JUMPDEST SWAP1 POP SWAP2 SWAP1 POP JUMP JUMPDEST PUSH32 0x496E646578206F7574206F662072616E67652E204F6E6C792035207369676E61 PUSH1 0x0 DUP3 ADD MSTORE PUSH32 0x747572657320616C6C6F7765642028696E646578203020746F20342900000000 PUSH1 0x20 DUP3 ADD MSTORE POP JUMP JUMPDEST PUSH1 0x0 PUSH2 0x1CEE PUSH1 0x3C DUP4 PUSH2 0x14A8 JUMP JUMPDEST SWAP2 POP PUSH2 0x1CF9 DUP3 PUSH2 0x1C92 JUMP JUMPDEST PUSH1 0x40 DUP3 ADD SWAP1 POP SWAP2 SWAP1 POP JUMP JUMPDEST PUSH1 0x0 PUSH1 0x20 DUP3 ADD SWAP1 POP DUP2 DUP2 SUB PUSH1 0x0 DUP4 ADD MSTORE PUSH2 0x1D1D DUP2 PUSH2 0x1CE1 JUMP JUMPDEST SWAP1 POP SWAP2 SWAP1 POP JUMP JUMPDEST PUSH1 0x0 DUP2 SWAP1 POP DUP2 PUSH1 0x0 MSTORE PUSH1 0x20 PUSH1 0x0 KECCAK256 SWAP1 POP SWAP2 SWAP1 POP JUMP JUMPDEST PUSH1 0x0 PUSH1 0x20 PUSH1 0x1F DUP4 ADD DIV SWAP1 POP SWAP2 SWAP1 POP JUMP JUMPDEST PUSH1 0x0 DUP3 DUP3 SHL SWAP1 POP SWAP3 SWAP2 POP POP JUMP JUMPDEST PUSH1 0x0 PUSH1 0x8 DUP4 MUL PUSH2 0x1D86 PUSH32 0xFFFFFFFFFFFFFFFFFFFFFFFFFFFFFFFFFFFFFFFFFFFFFFFFFFFFFFFFFFFFFFFF DUP3 PUSH2 0x1D49 JUMP JUMPDEST PUSH2 0x1D90 DUP7 DUP4 PUSH2 0x1D49 JUMP JUMPDEST SWAP6 POP DUP1 NOT DUP5 AND SWAP4 POP DUP1 DUP7 AND DUP5 OR SWAP3 POP POP POP SWAP4 SWAP3 POP POP POP JUMP JUMPDEST PUSH1 0x0 DUP2 SWAP1 POP SWAP2 SWAP1 POP JUMP JUMPDEST PUSH1 0x0 PUSH2 0x1DCD PUSH2 0x1DC8 PUSH2 0x1DC3 DUP5 PUSH2 0x11D4 JUMP JUMPDEST PUSH2 0x1DA8 JUMP JUMPDEST PUSH2 0x11D4 JUMP JUMPDEST SWAP1 POP SWAP2 SWAP1 POP JUMP JUMPDEST PUSH1 0x0 DUP2 SWAP1 POP SWAP2 SWAP1 POP JUMP JUMPDEST PUSH2 0x1DE7 DUP4 PUSH2 0x1DB2 JUMP JUMPDEST PUSH2 0x1DFB PUSH2 0x1DF3 DUP3 PUSH2 0x1DD4 JUMP JUMPDEST DUP5 DUP5 SLOAD PUSH2 0x1D56 JUMP JUMPDEST DUP3 SSTORE POP POP POP POP JUMP JUMPDEST PUSH1 0x0 SWAP1 JUMP JUMPDEST PUSH2 0x1E10 PUSH2 0x1E03 JUMP JUMPDEST PUSH2 0x1E1B DUP2 DUP5 DUP5 PUSH2 0x1DDE JUMP JUMPDEST POP POP POP JUMP JUMPDEST JUMPDEST DUP2 DUP2 LT ISZERO PUSH2 0x1E3F JUMPI PUSH2 0x1E34 PUSH1 0x0 DUP3 PUSH2 0x1E08 JUMP JUMPDEST PUSH1 0x1 DUP2 ADD SWAP1 POP PUSH2 0x1E21 JUMP JUMPDEST POP POP JUMP JUMPDEST PUSH1 0x1F DUP3 GT ISZERO PUSH2 0x1E84 JUMPI PUSH2 0x1E55 DUP2 PUSH2 0x1D24 JUMP JUMPDEST PUSH2 0x1E5E DUP5 PUSH2 0x1D39 JUMP JUMPDEST DUP2 ADD PUSH1 0x20 DUP6 LT ISZERO PUSH2 0x1E6D JUMPI DUP2 SWAP1 POP JUMPDEST PUSH2 0x1E81 PUSH2 0x1E79 DUP6 PUSH2 0x1D39 JUMP JUMPDEST DUP4 ADD DUP3 PUSH2 0x1E20 JUMP JUMPDEST POP POP JUMPDEST POP POP POP JUMP JUMPDEST PUSH1 0x0 DUP3 DUP3 SHR SWAP1 POP SWAP3 SWAP2 POP POP JUMP JUMPDEST PUSH1 0x0 PUSH2 0x1EA7 PUSH1 0x0 NOT DUP5 PUSH1 0x8 MUL PUSH2 0x1E89 JUMP JUMPDEST NOT DUP1 DUP4 AND SWAP2 POP POP SWAP3 SWAP2 POP POP JUMP JUMPDEST PUSH1 0x0 PUSH2 0x1EC0 DUP4 DUP4 PUSH2 0x1E96 JUMP JUMPDEST SWAP2 POP DUP3 PUSH1 0x2 MUL DUP3 OR SWAP1 POP SWAP3 SWAP2 POP POP JUMP JUMPDEST PUSH2 0x1ED9 DUP3 PUSH2 0x1237 JUMP JUMPDEST PUSH8 0xFFFFFFFFFFFFFFFF DUP2 GT ISZERO PUSH2 0x1EF2 JUMPI PUSH2 0x1EF1 PUSH2 0x12F3 JUMP JUMPDEST JUMPDEST PUSH2 0x1EFC DUP3 SLOAD PUSH2 0x1A6E JUMP JUMPDEST PUSH2 0x1F07 DUP3 DUP3 DUP6 PUSH2 0x1E43 JUMP JUMPDEST PUSH1 0x0 PUSH1 0x20 SWAP1 POP PUSH1 0x1F DUP4 GT PUSH1 0x1 DUP2 EQ PUSH2 0x1F3A JUMPI PUSH1 0x0 DUP5 ISZERO PUSH2 0x1F28 JUMPI DUP3 DUP8 ADD MLOAD SWAP1 POP JUMPDEST PUSH2 0x1F32 DUP6 DUP3 PUSH2 0x1EB4 JUMP JUMPDEST DUP7 SSTORE POP PUSH2 0x1F9A JUMP JUMPDEST PUSH1 0x1F NOT DUP5 AND PUSH2 0x1F48 DUP7 PUSH2 0x1D24 JUMP JUMPDEST PUSH1 0x0 JUMPDEST DUP3 DUP2 LT ISZERO PUSH2 0x1F70 JUMPI DUP5 DUP10 ADD MLOAD DUP3 SSTORE PUSH1 0x1 DUP3 ADD SWAP2 POP PUSH1 0x20 DUP6 ADD SWAP5 POP PUSH1 0x20 DUP2 ADD SWAP1 POP PUSH2 0x1F4B JUMP JUMPDEST DUP7 DUP4 LT ISZERO PUSH2 0x1F8D JUMPI DUP5 DUP10 ADD MLOAD PUSH2 0x1F89 PUSH1 0x1F DUP10 AND DUP3 PUSH2 0x1E96 JUMP JUMPDEST DUP4 SSTORE POP JUMPDEST PUSH1 0x1 PUSH1 0x2 DUP9 MUL ADD DUP9 SSTORE POP POP POP JUMPDEST POP POP POP POP POP POP JUMP JUMPDEST PUSH32 0x4261736541737369676E6D656E743A206765745369676E617475726545746841 PUSH1 0x0 DUP3 ADD MSTORE PUSH32 0x6D6F756E743A204F6E6C792076616C696461746F72206F72206F776E65722063 PUSH1 0x20 DUP3 ADD MSTORE PUSH32 0x616E2063616C6C20746869732066756E6374696F6E0000000000000000000000 PUSH1 0x40 DUP3 ADD MSTORE POP JUMP JUMPDEST PUSH1 0x0 PUSH2 0x2024 PUSH1 0x55 DUP4 PUSH2 0x14A8 JUMP JUMPDEST SWAP2 POP PUSH2 0x202F DUP3 PUSH2 0x1FA2 JUMP JUMPDEST PUSH1 0x60 DUP3 ADD SWAP1 POP SWAP2 SWAP1 POP JUMP JUMPDEST PUSH1 0x0 PUSH1 0x20 DUP3 ADD SWAP1 POP DUP2 DUP2 SUB PUSH1 0x0 DUP4 ADD MSTORE PUSH2 0x2053 DUP2 PUSH2 0x2017 JUMP JUMPDEST SWAP1 POP SWAP2 SWAP1 POP JUMP JUMPDEST PUSH32 0x4E487B7100000000000000000000000000000000000000000000000000000000 PUSH1 0x0 MSTORE PUSH1 0x11 PUSH1 0x4 MSTORE PUSH1 0x24 PUSH1 0x0 REVERT JUMPDEST PUSH1 0x0 PUSH2 0x2094 DUP3 PUSH2 0x11D4 JUMP JUMPDEST SWAP2 POP PUSH2 0x209F DUP4 PUSH2 0x11D4 JUMP JUMPDEST SWAP3 POP DUP3 DUP3 SUB SWAP1 POP DUP2 DUP2 GT ISZERO PUSH2 0x20B7 JUMPI PUSH2 0x20B6 PUSH2 0x205A JUMP JUMPDEST JUMPDEST SWAP3 SWAP2 POP POP JUMP JUMPDEST PUSH1 0x0 DUP2 SWAP1 POP SWAP2 SWAP1 POP JUMP JUMPDEST PUSH2 0x20D8 PUSH2 0x20D3 DUP3 PUSH2 0x11D4 JUMP JUMPDEST PUSH2 0x20BD JUMP JUMPDEST DUP3 MSTORE POP POP JUMP JUMPDEST PUSH1 0x0 DUP2 SWAP1 POP SWAP2 SWAP1 POP JUMP JUMPDEST PUSH1 0x0 DUP2 SWAP1 POP SWAP2 SWAP1 POP JUMP JUMPDEST PUSH2 0x2103 PUSH2 0x20FE DUP3 PUSH2 0x20DE JUMP JUMPDEST PUSH2 0x20E8 JUMP JUMPDEST DUP3 MSTORE POP POP JUMP JUMPDEST PUSH1 0x0 PUSH2 0x2115 DUP3 DUP6 PUSH2 0x20C7 JUMP JUMPDEST PUSH1 0x20 DUP3 ADD SWAP2 POP PUSH2 0x2125 DUP3 DUP5 PUSH2 0x20F2 JUMP JUMPDEST PUSH1 0x20 DUP3 ADD SWAP2 POP DUP2 SWAP1 POP SWAP4 SWAP3 POP POP POP JUMP JUMPDEST PUSH32 0x4E487B7100000000000000000000000000000000000000000000000000000000 PUSH1 0x0 MSTORE PUSH1 0x12 PUSH1 0x4 MSTORE PUSH1 0x24 PUSH1 0x0 REVERT JUMPDEST PUSH1 0x0 PUSH2 0x216F DUP3 PUSH2 0x11D4 JUMP JUMPDEST SWAP2 POP PUSH2 0x217A DUP4 PUSH2 0x11D4 JUMP JUMPDEST SWAP3 POP DUP3 PUSH2 0x218A JUMPI PUSH2 0x2189 PUSH2 0x2135 JUMP JUMPDEST JUMPDEST DUP3 DUP3 MOD SWAP1 POP SWAP3 SWAP2 POP POP JUMP JUMPDEST PUSH32 0x4E487B7100000000000000000000000000000000000000000000000000000000 PUSH1 0x0 MSTORE PUSH1 0x32 PUSH1 0x4 MSTORE PUSH1 0x24 PUSH1 0x0 REVERT JUMPDEST PUSH32 0x56616C696461746F722061646472657373206973206E6F742073657400000000 PUSH1 0x0 DUP3 ADD MSTORE POP JUMP JUMPDEST PUSH1 0x0 PUSH2 0x21FA PUSH1 0x1C DUP4 PUSH2 0x14A8 JUMP JUMPDEST SWAP2 POP PUSH2 0x2205 DUP3 PUSH2 0x21C4 JUMP JUMPDEST PUSH1 0x20 DUP3 ADD SWAP1 POP SWAP2 SWAP1 POP JUMP JUMPDEST PUSH1 0x0 PUSH1 0x20 DUP3 ADD SWAP1 POP DUP2 DUP2 SUB PUSH1 0x0 DUP4 ADD MSTORE PUSH2 0x2229 DUP2 PUSH2 0x21ED JUMP JUMPDEST SWAP1 POP SWAP2 SWAP1 POP JUMP INVALID LOG2 PUSH5 0x6970667358 0x22 SLT KECCAK256 NUMBER 0x4A PUSH2 0x9108 0x26 PUSH1 0x6B 0xC7 0xBF 0xBD INVALID 0xC3 PUSH12 0xF0989850FB83EFF344EE9ADE 0x2A LOG1 0xFB 0xCB DUP8 PUSH23 0x64736F6C63430008110033000000000000000000000000 "
        },
        "methodIdentifiers": {
          "_owner()": "b2bdfa7b",
          "_validator()": "e785fe52",
          "addSignature(uint256,bytes,uint256)": "ba44f1f9",
          "answerQuestion(string,bool)": "86f763a1",
          "answers(string)": "5e13c0da",
          "askQuestion()": "d1827e85",
          "getAnswer(string)": "2be49cf0",
          "getBlockNumber()": "42cbb15c",
          "getOwner()": "893d20e8",
          "getQuestions()": "97221ab7",
          "getSignature(uint256)": "02a569e6",
          "getSignatureEthAmount(uint256)": "c5bacb96",
          "isValidator(address)": "facd743b",
          "owner()": "8da5cb5b",
          "questions(uint256)": "31b1b978",
          "setBlockNumber(uint256)": "a8c3c850",
          "signatures(uint256)": "8be10194",
          "userAnswers(address,string)": "d2f7b19a"
        }
      }
    }
  }
}